S01300005457492D616B612D4932432E73726563D8
S11300001FC439C438C437C436C435C4A9C633C4BC
S113001032C41DC730C42FC42EC42DC42CC42BC459
S11300202AC42AC628C40000000000000000000002
S113003000000000000000000000000000000000BC
S113004000000000000000000000000000000000AC
S1130050000000000000000000000000000000009C
S1130060000000000000000000000000000000008C
S1130070000000000000000000000000000000007C
S1130080000000000000000000000000000000006C
S1130090000000000000000000000000000000005C
S11300A0000000000000000000000000000000004C
S11300B0000000000000000000000000000000003C
S11300C0000000000000000000000000000000002C
S11300D0000000000000000000000000000000001C
S11300E0000000000000000000000000000000000C
S11300F000000000000000000000000000000000FC
S113010000000000000000000000000000000000EB
S113011000000000000000000000000000000000DB
S113012000000000000000000000000000000000CB
S113013000000000000000000000000000000000BB
S113014000000000000000000000000000000000AB
S1130150000000000000000000000000000000009B
S1130160000000000000000000000000000000008B
S1130170000000000000000000000000000000007B
S1130180000000000000000000000000000000006B
S1130190080808080000006060000000000000007B
S11301A0000000000000003E615149453E0000404F
S11301B0427F404000000062514949494600002204
S11301C0414149493600001814127F1010000027DD
S11301D0494949493100003E494949493200000131
S11301E001710905030000364949494936000026D2
S11301F0494949493E0000000066660000000000CD
S113020000000000000000000000000000000000EA
S1130210000000000000000000412214080000005B
S113022000000000000000000000000000000000CA
S113023000000000000000000000000000000000BA
S113024000000000000000000000000000000000AA
S1130250000000000000000000000000000000009A
S1130620000000000000007E090909097E00007F27
S1130630494949493100007F494949497600007FC9
S113064001010101010000603826213F6000007FA4
S11306504949494949000077087F0877000000228A
S1130660414141493600007F201008047F00007F8B
S1130670201109047F00007F080814630000007C37
S1130680020101017F00007F0204027F0000007F5D
S1130690080808087F00003E414141413E00007FB8
S11306A0010101017F00007F090909090600003EDC
S11306B04141414122000001017F01010000002766
S11306C0484848483F00001C227F221C0000006369
S11306D0140814630000001F2020203F6000000F56
S11306E0101010107F00007F407F407F0000003F0B
S11306F0203F203F600000017F4444443800007FD5
S1130700444438007F00007F4444444438000022BD
S1130710414149493E00007F083E41413E000046B8
S1130720291111117F0000000000000000000000EA
S113073000000000000000000000000000000000B5
S113074000000000000000000000000000000000A5
S11307500000000000000000000000000000000095
S11307600000000000000000000000000000000085
S11307700000000000000000000000000000000075
S11307800000000000000000000000000000000065
S11307900000000000000000000000000000000055
S11307A00000000000000000000000000000000045
S11307B00000000000000000000000000000000035
S11307C00000000000000000000000000000000025
S11307D00000000000000000000000000000E0F83D
S11307E0FC3E0E0763733F1F0F0682C0F0E0071F35
S11307F03F3E1C8CC6E2F1F8FC7E7F3F1F07000CD5
S113080012CA2490100808905024CA120C00000048
S1130810030C10202142432020100C030000000090
S1130820000000000000080708070807060706087C
S11308300708060703030608040607000000000073
S113084011241FBECFE5D4E0DEBFCDBF10E0A0E68B
S1130850B0E0E2E7F9E102C005900D92A23CB107D5
S1130860D9F721E0A2ECB0E001C01D92A336B20793
S1130870E1F703D37CC8C4CB28E0829FC0011124D4
S11308808A5D9F4FAFECB0E047ED50E0FC0125914D
S113089034912D930196A417B507C1F78FEC90E01E
S11308A00895CF92DF92EF92FF920F931F93CF930D
S11308B0DF93C82ED92E862FDFDF8C017C0188E0E0
S11308C0E80EF11CCC2DDD2DF80161918F01CE01D4
S11308D0CED121960E151F05B9F7DF91CF911F9147
S11308E00F91FF90EF90DF90CF9008950F931F9397
S11308F0CF93DF93EB016991662331F08C01085F9C
S11309001F4FCFDFC801F7CFDF91CF911F910F9118
S11309100895FC0101900020E9F73197E81BF90BD9
S1130920EE0FFF1FEE0FFF1FEE0FFF1FF695E7956B
S1130930BC0180E490E08E1B9F0BD8DF0895FC017E
S113094001900020E9F731979C012E1B3F0B220FE9
S1130950331F220F331F220F331FBC01C9018058DC
S11309609F4FC4DF089586E180B986B7856A86BF44
S1130970089586B7856986BF0895CF93C82F82E00E
S113098090E09093DE008093DD009093D8008093F4
S1130990D7007ED69093DA008093D900FC011082B0
S11309A0C18388E790E09093DC008093DB00DBDF79
S11309B0CF910895CF92DF92EF92FF920F931F93FE
S11309C0CF93DF937C016B01EB012196CE0160D6BE
S11309D08C0180E4F8018083C114D10459F0F7013B
S11309E0D8011196B7016C0D7D1D91919D93E61769
S11309F0F707D9F7D093DE00C093DD00D093D80079
S1130A00C093D700CE0144D69093DA008093D900E6
S1130A10AE01B8015ED788E790E09093DC00809344
S1130A20DB00C801CDD69FDFDF91CF911F910F91DD
S1130A30FF90EF90DF90CF9008958EEA9EDF8BEDCC
S1130A4095E00197F1F700C0000085ED96DF8BED8E
S1130A5095E00197F1F700C0000080E88EDF8BED90
S1130A6095E00197F1F700C0000088EA86DF8BED7E
S1130A7095E00197F1F700C000008FE37EDF8BED76
S1130A8095E00197F1F700C0000083ED76DF8BED70
S1130A9095E00197F1F700C0000080E06EDF8BED78
S1130AA095E00197F1F700C0000080E466DF8BED6C
S1130AB095E00197F1F700C000008DE85EDF8BED53
S1130AC095E00197F1F700C0000084E156DF8BED5B
S1130AD095E00197F1F700C0000080E24EDF8BED56
S1130AE095E00197F1F700C0000080E046DF8BED50
S1130AF095E00197F1F700C0000081EA3EDF8BED3D
S1130B0095E00197F1F700C0000088EC36DF8BED2B
S1130B1095E00197F1F700C000008AED2EDF8BED20
S1130B2095E00197F1F700C0000082E126DF8BED2C
S1130B3095E00197F1F700C0000081E81EDF8BED1E
S1130B4095E00197F1F700C000008FEC16DF8BED04
S1130B5095E00197F1F700C0000089ED0EDF8BED01
S1130B6095E00197F1F700C0000081EF06DF8BEDFF
S1130B7095E00197F1F700C000008BEDFEDE8BEDF0
S1130B8095E00197F1F700C0000080E4F6DE8BEDFC
S1130B9095E00197F1F700C0000084EAEEDE8BEDEA
S1130BA095E00197F1F700C0000086EAE6DE8BEDE0
S1130BB095E00197F1F700C000008FEADEDE8BEDCF
S1130BC095E00197F1F700C000000895CF93C82F76
S1130BD081E2D3DE81EC91E00197F1F700C00000DF
S1130BE080E0CBDE81EC91E00197F1F700C00000DA
S1130BF08FE7C3DE81EC91E00197F1F700C00000BC
S1130C0082E2BBDE81EC91E00197F1F700C00000C5
S1130C108C2FB3DE81EC91E00197F1F700C0000066
S1130C208C2FABDE81EC91E00197F1F700C000005E
S1130C3060E870E08FED90E0BDDE83EE97E501970C
S1130C40F1F700C00000CF91089580E8EFEDF0E0E7
S1130C50DF011D928A95E9F70895CF93F6DFC0E08E
S1130C608C2FB4DFCF5FC830D9F7CF91089581526C
S1130C709F4FFC01608308951F920F920FB60F924D
S1130C8011242F933F934F935F936F937F938F938D
S1130C909F93AF93BF93EF93FF9381B1883181F01A
S1130CA018F4883039F04BC0803209F441C08832DE
S1130CB0E1F045C08091DB0083B985E886BF3FC081
S1130CC0E091DD00F091DE008091D7009091D80092
S1130CD0E81BF90B8091D9009091DA00E80FF91F15
S1130CE0808183B985E886BF2AC08091D70090911E
S1130CF0D80001979093D8008093D700009789F08B
S1130D00E091DD00F091DE00E81BF90B8091D90041
S1130D109091DA00E80FF91F808183B985E886BFD6
S1130D200EC027DE8091D9009091DA0049D507C022
S1130D3020DEC29A8091D9009091DA0041D5FF91CA
S1130D40EF91BF91AF919F918F917F916F915F913F
S1130D504F913F912F910F900FBE0F901F901895B8
S1130D601F920F920FB60F9211242F933F938F93DC
S1130D709F938091CC008F5F8C3318F48093CC00C8
S1130D8007C01092CC008091CD008F5F8093CD007E
S1130D908091CD008C3338F01092CD008091CE003C
S1130DA08F5F8093CE008091CE00883130F0109216
S1130DB0CE001092CD001092CC0080916700882361
S1130DC059F19091CE008091CA00981334C090914B
S1130DD0CD008091C900981308C09091CC008091F7
S1130DE0C800981302C01092C5009091CD00809164
S1130DF0C900981788F03091CC002091C8003217B0
S1130E0010F4891748F48091C500811105C08091C0
S1130E10C6008F5F8093C6008091C6008E3170F04B
S1130E201092C6001092670013BE1092C300109275
S1130E30C200C19803C0981778F3D7CF9F918F91C0
S1130E403F912F910F900FBE0F901F9018951F92F6
S1130E500F920FB60F9211248F939F938091C40029
S1130E60809582BF98B382E0892788BB9F918F9138
S1130E700F900FBE0F901F901895CF93DF93CDB7AF
S1130E80DEB762970FB6F894DEBF0FBECDBFF894FD
S1130E90B99A85B38F6085BB78948EB588608EBD12
S1130EA089B7806189BF8EB585608EBD82EE96E17B
S1130EB09BBD8ABD89B7816089BFBFDD87E99AE39D
S1130EC00197F1F700C00000C8DEE7E9FAE33197C3
S1130ED0F1F700C00000212C612C70E040E0A0E09C
S1130EE0332433947E01FAE0EF0EF11C0F2EFAE363
S1130EF0AF2EB12CF02D0F2EF0E38F2E912CF02D70
S1130F0080916700882309F440C09091CE008091BD
S1130F10CA009817D0F19091CD008091C90098171C
S1130F20A0F13091CC002091C800321710F4891739
S1130F3060F58091C500811128C0E091C300F0E004
S1130F40EA5DF74F859194918093C200811104C0AA
S1130F501092C40013BE03C083B7856083BF809121
S1130F60C200823010F08093C4008091C30091E0ED
S1130F70980F9093C30090916600891728F01092FF
S1130F80C3001092C40013BEC19823B303B30095E9
S1130F90047093B373B2872D80958870782E83B3D1
S1130FA013B31095127043B233B3532C632F617093
S1130FB030FD512C9A9972C050E030E02095309564
S1130FC024703327421B530B9A0122F42227332720
S1130FD0241B350B222309F461C02091CB0022305D
S1130FE061F0233099F1213009F058C0211003C079
S1130FF06894222421F82A9451C02091C7002130FA
S113100079F018F02230B9F049C02091CA002F5F5E
S1131010283118F42093CA0041C01092CA003EC07F
S11310202091C9002F5F2C3318F42093C90036C0D7
S11310301092C90033C02091C8002F5F2C3318F4DC
S11310402093C8002BC01092C80028C02091C7006C
S1131050213079F018F02230B9F020C02091CE0070
S11310602F5F283118F42093CE0018C01092CE00C0
S113107015C02091CD002F5F2C3318F42093CD00A0
S11310800DC01092CD000AC02091CC002F5F2C33EC
S113109018F42093CC0002C01092CC009B997FC01E
S11310A0272F30E0492F50E0409550954870552740
S11310B0241B350BA90122F444275527421B530B4B
S11310C0442309F46CC09091CB00923059F09330D2
S11310D0C1F1913009F063C02394921508F05FC008
S11310E0212C5DC09091C700913089F018F09230A6
S11310F0D9F055C09091CA00911103C0E8E1E09382
S1131100CA009091CA0091509093CA0048C090912F
S1131110C900911103C0FCE3F093C9009091C90088
S113112091509093C9003BC09091C800911103C0A5
S11311309CE39093C8009091C80091509093C8008C
S11311402EC09091C700913089F018F09230D9F0F8
S113115026C09091CE00911103C0E8E1E093CE0047
S11311609091CE0091509093CE0019C09091CD00F3
S1131170911103C0FCE3F093CD009091CD00915008
S11311809093CD000CC09091CC00911103C09CE3CE
S11311909093CC009091CC0091509093CC0099996D
S11311A01CC0B0E090E08095909582709927A81BB0
S11311B0B90BCD0122F4882799278A1B9B0B88231E
S11311C061F0662351F08091CB00882319F01092CE
S11311D0CB0002C03092CB0040DD989991C0862D9F
S11311E090E0432440FACC24C0F8D12C8C199D09FA
S11311F09C0122F422273327281B390B222309F4CC
S11312007FC08091CB008230C1F0833009F446C0A6
S1131210813009F04FC0222021F0E1E02E1641F088
S11312206FC01092C70082E08093CB0016DD68C0C7
S113123083E08093CB0011DD63C0112339F0109259
S113124067001092C70009DD1092CB008091C7009F
S11312508F5F833018F48093C70052C01092C70088
S1131260309267009091CA008091CE00891710F0E7
S11312703092C5009091C9008091CD00891710F07B
S11312803092C5009091C8008091CC00891710F06D
S11312903092C500E2DC1092CB0045C08091C700BB
S11312A08F5F8093C700833078F111112DC01092A5
S11312B0C7002AC080916700882311F19091CE0065
S11312C08091CA009817E0F09091CD008091C900F8
S11312D09817B0F03091CC002091C800321710F468
S11312E0891770F48091C50081110AC01092C6005C
S11312F01092670013BE1092C3001092C200A99806
S11313008091CB00833011F41DBC1CBC8091CB00B8
S1131310813009F48FC038F0823009F4BBC08330C7
S113132009F432C1AAC18091CE004AE0BE016F5FC8
S11313307F4F90E0E9D28091CD004AE0BE016C5F1E
S11313407F4F90E0E1D28091CC004AE0BE01695F1A
S11313507F4F90E0D9D28091CE008A3048F4F701D3
S113136091828082BE016F5F7F4FC701BBD205C0EF
S1131370BE016F5F7F4FC701C0D2F701019000200B
S1131380E9F73197B182A0828091CD008A3038F498
S1131390F70101900020E9F7319791828082BE0124
S11313A06C5F7F4FC7019ED2F70101900020E9F7DF
S11313B03197B182A0828091CC008A3038F4F70151
S11313C001900020E9F7319791828082BE01695F24
S11313D07F4FC70187D239DCC7019BDA84E0F6DB93
S11313E034DC88E690E095DA82E0F0DB86E0EEDB40
S11313F02CDC69E770E082E090E078DA8CE790E03A
S113140088DA80916700882319F081E890E097DA00
S113141080E0DCDB1ADC64E870E082E090E066DA0D
S113142080916700882319F08AE890E088DA832D98
S1131430CDDB23C10ADC8DE890E06BDA80E0C6DB0B
S113144004DC21100EC068E970E080E090E04EDA20
S11314506AE970E088E090E049DA82E0B7DBF5DB26
S113146010C06AE970E088E090E040DA82E0AEDB28
S1131470ECDBF1E02F1205C068E970E080E090E059
S113148035DA67EA70E088E090E030DA83E09EDBEA
S1131490DCDBF3C08091CA004AE0BE016F5F7F4F7E
S11314A090E032D28091C9004AE0BE016C5F7F4F68
S11314B090E02AD28091C8004AE0BE01695F7F4F64
S11314C090E022D28091CA008A3048F4F7019182D8
S11314D08082BE016F5F7F4FC70104D205C0BE0189
S11314E06F5F7F4FC70109D2F70101900020E9F730
S11314F03197B182A0828091C9008A3038F4F70113
S113150001900020E9F7319791828082BE016C5FDF
S11315107F4FC701E7D1F70101900020E9F7319728
S1131520B182A0828091C8008A3038F4F70101901A
S11315300020E9F7319791828082BE01695F7F4F75
S1131540C701D0D182DB84EB90E0E3D980E03EDBBD
S11315507CDBC701DED984E039DB77DB8091C7000F
S113156090E001979C01220F331F820F931F880F75
S1131570991F880F991F880F991F66E770E0C89616
S1131580B5D985E023DB79C060DB8AEA90E0C1D974
S113159080E01CDB8091CE004AE0BE016F5F7F4F8C
S11315A090E0B2D18091CD004AE0BE016C5F7F4FE4
S11315B090E0AAD18091CC004AE0BE01695F7F4FE0
S11315C090E0A2D18091CE008A3048F4F701918254
S11315D08082BE016F5F7F4FC70184D105C0BE0109
S11315E06F5F7F4FC70189D1F70101900020E9F7B0
S11315F03197B182A0828091CD008A3038F4F7010E
S113160001900020E9F7319791828082BE016C5FDE
S11316107F4FC70167D1F70101900020E9F73197A7
S1131620B182A0828091CC008A3038F4F701019015
S11316300020E9F7319791828082BE01695F7F4F74
S1131640C70150D102DBC70164D984E0BFDAFDDAF7
S11316508091C70090E001979C01220F331F820FF5
S1131660931F880F991F880F991F880F991F66E78A
S113167070E0C8963BD985E0A9DA87E99AE3019737
S1131680F1F700C00000652C772D402FA12F38CC36
S11316900F931F93CF93DF938230910510F482E070
S11316A090E0E0916101F091620120E030E0A0E07F
S11316B0B0E0309719F140815181028113814817BC
S11316C05907C8F08417950769F4109731F01296FA
S11316D00C93129713961C9327C0009361011093E7
S11316E0620122C02115310519F04217530718F47D
S11316F09A01BD01EF01DF01F801DBCF21153105AE
S1131700F9F0281B390B2430310580F48A819B8140
S11317106115710521F0FB019383828304C09093CA
S1131720620180936101FE01329644C0FE01E20F22
S1131730F31F8193919322503109398328833AC04E
S113174020915F0130916001232B41F420916200CC
S1131750309163003093600120935F012091600019
S1131760309161002115310541F42DB73EB7409108
S1131770640050916500241B350BE0915F01F091EA
S11317806001E217F307A0F42E1B3F0B281739075B
S113179078F0AC014E5F5F4F2417350748F04E0FC9
S11317A05F1F5093600140935F018193919302C046
S11317B0E0E0F0E0CF01DF91CF911F910F91089508
S11317C0CF93DF93009709F481C0FC013297138211
S11317D01282A0916101B0916201109781F420817D
S11317E03181820F931F20915F013091600128178E
S11317F0390751F5F0936001E0935F0167C0ED0193
S113180020E030E0CE17DF0740F44A815B819E017F
S113181041155105F1F0EA01F5CFD383C28340812C
S11318205181840F951FC817D90759F4888199816C
S1131830840F951F0296918380838A819B81938371
S113184082832115310529F4F0936201E09361014B
S11318503DC0E901FB83EA8349915991C40FD51F27
S1131860EC17FD0761F480819181840F951F029626
S1131870E90199838883828193819B838A83E0E051
S1131880F0E012968D919C911397009719F0FD0149
S1131890DC01F7CF8D919C9111979D012E5F3F4FF5
S11318A0820F931F20915F0130916001281739073F
S11318B069F4309729F4109262011092610102C018
S11318C013821282B0936001A0935F01DF91CF91E4
S11318D00895FB01DC0102C001900D92415050407B
S11318E0D8F70895FB01DC010D900020E9F711976A
S11318F001900D920020E1F70895FB01DC010190B5
S11319000D920020E1F70895BB274A3031F4992362
S113191022F4BDE2909581959F4F01C0BB27FB0146
S11319205527AA27880F991FAA1FA41710F0A41BD4
S113193083955051B9F7A05DAA3308F0A95DA1932E
S1131940009779F7B111B1931192CB0100C0DC017A
S1131950FC01672F71917723E1F7329704C07C91E2
S11319606D9370836291AE17BF07C8F30895F8941E
S1051970FFCFA3
S113197200006301200019012D2D2D2D2D2D2D2D5B
S11319822D2D2D2D2D2D2D2D00F7F800D7C0D1DBB7
S113199200FBFC00F9FAD7C3D300FDFE00CDC0D191
S11319A2D2D0CEC9CAC83A003E00312E20C1D3C417
S11319B2C8CBDCCDC8CA00322E20D3D1D220C2D0AB
S11319C2C5CCDF00D3D1D220C1D3C4C8CBDCCDC8AF
S10519D2CA0045
S9030000FC
