S01300005457492D616B612D4932432E73726563D8
S113000012C42CC42BC42AC429C428C46EC626C452
S113001025C424C423C422C421C420C41FC41EC4B0
S11300201DC4E9C51BC4000000000000000000005E
S113003000000000000000000000000000000000BC
S113004000000000000000000000000000000000AC
S1130050000000000000000000000000000000009C
S1130060000000000000000000000000000000008C
S1130070000000000000000000000000000000007C
S1130080000000000000000000000000000000006C
S1130090000000000000000000000000000000005C
S11300A0000000000000000000000000000000004C
S11300B0000000000000000000000000000000003C
S11300C0000000000000000000000000000000002C
S11300D0000000000000000000000000000000001C
S11300E0000000000000000000000000000000000C
S11300F000000000000000000000000000000000FC
S113010000000000000000000000000000000000EB
S113011000000000000000000000000000000000DB
S113012000000000000000000000000000000000CB
S113013000000000000000000000000000000000BB
S113014000000000000000000000000000000000AB
S1130150000000000000000000000000000000009B
S1130160000000000000000000000000000000008B
S1130170000000000000000000000000000000007B
S1130180000000000000000000000000000000006B
S1130190000000000000000000000000000000005B
S11301A0000000000000003E615149453E0000404F
S11301B0427F404000000062514949494600002204
S11301C0414149493600001814127F1010000027DD
S11301D0494949493100003E494949493200000131
S11301E001710905030000364949494936000026D2
S11301F0494949493E0000000066660000000000CD
S113020000000000000000000000000000000000EA
S113021000000000000000000000000000000000DA
S113022000000000000000000000000000000000CA
S113023000000000000000000000000000000000BA
S1130620000000000000007E090909097E00007F27
S1130630494949493100007F494949497600007FC9
S113064001010101010000603826213F6000007FA4
S11306504949494949000077087F0877000000228A
S1130660414141493600007F201008047F00007F8B
S1130670201109047F00007F080814630000007C37
S1130680020101017F00007F0204027F0000007F5D
S1130690080808087F00003E414141413E00007FB8
S11306A0010101017F00007F090909090600003EDC
S11306B04141414122000001017F01010000002766
S11306C0484848483F00001C227F221C0000006369
S11306D0140814630000001F2020203F6000000F56
S11306E0101010107F00007F407F407F0000003F0B
S11306F0203F203F600000017F4444443800007FD5
S1130700444438007F00007F4444444438000022BD
S1130710414149493E00007F083E41413E000046B8
S1130720291111117F0000000000000000000000EA
S113073000000000000000000000000000000000B5
S113074000000000000000000000000000000000A5
S11307500000000000000000000000000000000095
S11307600000000000000000000000000000000085
S11307700000000000000000000000000000000075
S11307800000000000000000000000000000000065
S11307900000000000000000000000000000000055
S11307A00000000000000000000000000000000045
S11307B00000000000000000000000000000000035
S11307C00000000000000000000000000000000025
S11307D00000000000000000000000000000000015
S11307E00000000000000000000000000000000005
S11307F000000000000000000000000000000000F5
S113080000000000000000000000000000000000E4
S113081000000000000000000000000000000000D4
S113082000000000000011241FBECFE5D4E0DEBFAD
S1130830CDBF10E0A0E6B0E0E4E5F2E102C005902F
S11308400D92A637B107D9F721E0A6E7B0E001C0C1
S11308501D92AE30B207E1F77ED2FAC4D1CB28E0C4
S1130860829FC00111248A5D9F4FAAE7B0E042E84D
S113087050E0FC01259134912D930196A417B507FE
S1130880C1F78AE790E00895CF92DF92EF92FF924A
S11308900F931F93CF93DF93C82ED92E862FDFDFBC
S11308A08C017C0188E0E80EF11CCC2DDD2DF801D3
S11308B061918F01CE019AD121960E151F05B9F7CA
S11308C0DF91CF911F910F91FF90EF90DF90CF9028
S11308D008950F931F93CF93DF93EB0169916623E0
S11308E031F08C01085F1F4FCFDFC801F7CFDF91D4
S11308F0CF911F910F91089580E280B986B7856AE0
S113090086BF089586B7856986BF0895CF93C82F9B
S113091082E090E090938900809388009093830014
S1130920809382001CD39093850080938400FC0103
S11309301082C18388E790E09093870080938600BB
S1130940DBDFCF910895CF92DF92EF92FF920F9366
S11309501F93CF93DF937C016B01EB012196CE01B2
S1130960FED28C0180E4F8018083C114D10459F0D3
S1130970F701D8011196B7016C0D7D1D91919D93DE
S1130980E617F707D9F7D0938900C0938800D0936E
S11309908300C0938200CE01E2D2909385008093BD
S11309A08400AE01B801FCD388E790E090938700FF
S11309B080938600C8016BD39FDFDF91CF911F9195
S11309C00F91FF90EF90DF90CF9008958EEA9EDF15
S11309D08FEC97E00197F1F700C0000085ED96DFFA
S11309E08FEC97E00197F1F700C0000080E88EDFFC
S11309F08FEC97E00197F1F700C0000088EA86DFEA
S1130A008FEC97E00197F1F700C000008FE37EDFE1
S1130A108FEC97E00197F1F700C0000083ED76DFDB
S1130A208FEC97E00197F1F700C0000080E06EDFE3
S1130A308FEC97E00197F1F700C0000080E466DFD7
S1130A408FEC97E00197F1F700C000008DE85EDFBE
S1130A508FEC97E00197F1F700C0000084E156DFC6
S1130A608FEC97E00197F1F700C0000080E24EDFC1
S1130A708FEC97E00197F1F700C0000080E046DFBB
S1130A808FEC97E00197F1F700C0000081EA3EDFA8
S1130A908FEC97E00197F1F700C0000088EC36DF97
S1130AA08FEC97E00197F1F700C000008AED2EDF8C
S1130AB08FEC97E00197F1F700C0000082E126DF98
S1130AC08FEC97E00197F1F700C0000081E81EDF8A
S1130AD08FEC97E00197F1F700C000008FEC16DF70
S1130AE08FEC97E00197F1F700C0000089ED0EDF6D
S1130AF08FEC97E00197F1F700C0000081EF06DF6B
S1130B008FEC97E00197F1F700C000008BEDFEDE5B
S1130B108FEC97E00197F1F700C0000080E4F6DE67
S1130B208FEC97E00197F1F700C0000084EAEEDE55
S1130B308FEC97E00197F1F700C0000086EAE6DE4B
S1130B408FEC97E00197F1F700C000008FEADEDE3A
S1130B508FEC97E00197F1F700C000000895CF9360
S1130B60C82F81E2D3DE87E592E00197F1F700C058
S1130B70000080E0CBDE87E592E00197F1F700C04A
S1130B8000008FE7C3DE87E592E00197F1F700C02C
S1130B90000082E2BBDE87E592E00197F1F700C036
S1130BA000008C2FB3DE87E592E00197F1F700C0D7
S1130BB000008C2FABDE87E592E00197F1F700C0CF
S1130BC0000060E870E08AE890E0BDDE8FE295E71F
S1130BD00197F1F700C00000CF91089580E8EAE89A
S1130BE0F0E0DF011D928A95E9F7089586579F4F3B
S1130BF0FC01608308951F920F920FB60F92112487
S1130C002F933F934F935F936F937F938F939F9310
S1130C10AF93BF93EF93FF9381B1883181F018F4C0
S1130C20883039F051C0803209F447C08832E1F08D
S1130C304BC08091860083B985E886BF45C0E091AA
S1130C408800F09189008091820090918300E81BD4
S1130C50F90B8091840090918500E80FF91F808141
S1130C6083B985E886BF30C080918200909183006B
S1130C7001979093830080938200892BB1F0C098F0
S1130C80E0918800F0918900809182009091830026
S1130C90E81BF90B8091840090918500E80FF91FFF
S1130CA0808183B985E886BF0FC02CDEC09A80910D
S1130CB0840090918500EBD107C024DEC19A809115
S1130CC0840090918500E3D1FF91EF91BF91AF91A2
S1130CD09F918F917F916F915F914F913F912F9150
S1130CE00F900FBE0F901F9018951F920F920FB682
S1130CF00F9211248F939F9398B388E0892788BB20
S1130D00809177008F5F8C3318F48093770007C04D
S1130D1010927700809178008F5F809378008091A3
S1130D2078008C3338F010927800809179008F5FCE
S1130D308093790080917900883130F010927900A5
S1130D4010927800109277009F918F910F900FBEB0
S1130D500F901F901895CF93DF93CDB7DEB7A89768
S1130D600FB6F894DEBF0FBECDBF87B38B6087BBD1
S1130D70789488B3806F88BB8EB588608EBD89B740
S1130D80806189BF84E89EE19BBD8ABD8EB5856084
S1130D908EBD1CDE8FE19EE40197F1F700C00000D8
S1130DA0662463942E019AE0490E511C0F2EFAE337
S1130DB0CF2ED12CF02D6894AA24A6F8B12C7E0154
S1130DC0E9E1EE0EF11C0F2EF0E38F2E912CF02DA5
S1130DD0B69909C06092760001DF10E0812FBFDE72
S1130DE01F5F1830D9F780917600882321F0813075
S1130DF009F49EC0ADC0809179004AE050E0BE0184
S1130E006F5F7F4F90E0E7D1809178004AE050E037
S1130E10BE016C5F7F4F90E0DED1809177004AE0A5
S1130E2050E0BE01695F7F4F90E0D5D18091790099
S1130E308A3048F4F20191828082BE016F5F7F4F55
S1130E40C201B7D105C0BE016F5F7F4FC201BCD1E3
S1130E50F20101900020E9F73197D182C08280919C
S1130E6078008A3038F4F20101900020E9F73197D4
S1130E7091828082BE016C5F7F4FC2019AD1F201E0
S1130E8001900020E9F73197D182C08280917700E8
S1130E908A3038F4F20101900020E9F73197918209
S1130EA08082BE01695F7F4FC20183D197DEF20168
S1130EB001900020E9F73197E419F509EE0FFF1FBF
S1130EC0EE0FFF1FEE0FFF1FF695E795B201C50168
S1130ED08E1B9F0BFEDC84E042DE80DEF701019076
S1130EE00020E9F7CF0141978E159F0509F4198E6B
S1130EF0F70101900020E9F73197D182C082F70110
S1130F0001900020E9F73197EE19FF09EE0FFF1F5A
S1130F10EE0FFF1FEE0FFF1FF695E795B701C50112
S1130F208E1B9F0BD6DC82E01ADE86E018DE10C032
S1130F3055DE66E670E080E090E0CBDC80E00FDE1A
S1130F404DDE6BE670E080E090E0C3DC862D07DECA
S1130F508FE19EE40197F1F700C0000039CF0F93B1
S1130F601F93CF93DF938230910510F482E090E0D9
S1130F70E0910C01F0910D0120E030E0A0E0B0E040
S1130F80309719F140815181028113814817590723
S1130F90C8F08417950769F4109731F012960C93F2
S1130FA0129713961C9327C000930C0110930D0104
S1130FB022C02115310519F04217530718F49A017C
S1130FC0BD01EF01DF01F801DBCF21153105F9F097
S1130FD0281B390B2430310580F48A819B816115EB
S1130FE0710521F0FB019383828304C090930D016A
S1130FF080930C01FE01329644C0FE01E20FF31F00
S11310008193919322503109398328833AC02091E6
S11310100A0130910B01232B41F42091620030919D
S1131020630030930B0120930A01209160003091FA
S113103061002115310541F42DB73EB7409164009C
S113104050916500241B350BE0910A01F0910B01CE
S1131050E217F307A0F42E1B3F0B2817390778F08B
S1131060AC014E5F5F4F2417350748F04E0F5F1FEA
S113107050930B0140930A018193919302C0E0E0E5
S1131080F0E0CF01DF91CF911F910F910895CF939D
S1131090DF93009709F481C0FC0132971382128216
S11310A0A0910C01B0910D01109781F42081318140
S11310B0820F931F20910A0130910B0128173907E1
S11310C051F5F0930B01E0930A0167C0ED0120E0B4
S11310D030E0CE17DF0740F44A815B819E01411561
S11310E05105F1F0EA01F5CFD383C28340815181E8
S11310F0840F951FC817D90759F488819981840FE3
S1131100951F0296918380838A819B819383828336
S11311102115310529F4F0930D01E0930C013DC034
S1131120E901FB83EA8349915991C40FD51FEC1758
S1131130FD0761F480819181840F951F0296E90176
S113114099838883828193819B838A83E0E0F0E0A2
S113115012968D919C911397009719F0FD01DC0173
S1131160F7CF8D919C9111979D012E5F3F4F820F78
S1131170931F20910A0130910B012817390769F454
S1131180309729F410920D0110920C0102C01382C1
S11311901282B0930B01A0930A01DF91CF910895BD
S11311A0FB01DC0102C001900D9241505040D8F780
S11311B00895FB01DC010D900020E9F711970190DF
S11311C00D920020E1F70895FB01DC0101900D92DE
S11311D00020E1F708954532510518F4423008F033
S11311E004C0FB011082CB010895BB274A3031F4BF
S11311F0992322F4BDE2909581959F4F01C0BB27AE
S1131200FB015527AA27880F991FAA1FA41710F0BE
S1131210A41B83955051B9F7A05DAA3308F0A95DCA
S1131220A193009779F7B111B1931192CB0100C04A
S1131230DC01FC01672F71917723E1F7329704C039
S11312407C916D9370836291AE17BF07C8F30895C4
S1071250F894FFCF3C
S113125400000E012000CAD0C0C100D1CED1C820E4
S1091264C6CECFD300004A
S9030000FC
