S01300005457492D616B612D4932432E73726563D8
S11300001FC439C438C437C436C435C4A9C633C4BC
S113001032C41DC730C42FC42EC42DC42CC42BC459
S11300202AC42AC628C40000000000000000000002
S113003000000000000000000000000000000000BC
S113004000000000000000000000000000000000AC
S1130050000000000000000000000000000000009C
S1130060000000000000000000000000000000008C
S1130070000000000000000000000000000000007C
S1130080000000000000000000000000000000006C
S1130090000000000000000000000000000000005C
S11300A0000000000000000000000000000000004C
S11300B0000000000000000000000000000000003C
S11300C0000000000000000000000000000000002C
S11300D0000000000000000000000000000000001C
S11300E0000000000000000000000000000000000C
S11300F000000000000000000000000000000000FC
S113010000000000000000000000000000000000EB
S113011000000000000000000000000000000000DB
S113012000000000000000000000000000000000CB
S113013000000000000000000000000000000000BB
S113014000000000000000000000000000000000AB
S1130150000000000000000000000000000000009B
S1130160000000000000000000000000000000008B
S1130170000000000000000000000000000000007B
S1130180000000000000000000000000000000006B
S1130190080808080000006060000000000000007B
S11301A0000000000000003E615149453E0000404F
S11301B0427F404000000062514949494600002204
S11301C0414149493600001814127F1010000027DD
S11301D0494949493100003E494949493200000131
S11301E001710905030000364949494936000026D2
S11301F0494949493E0000000066660000000000CD
S113020000000000000000000000000000000000EA
S1130210000000000000000000412214080000005B
S113022000000000000000000000000000000000CA
S113023000000000000000000000000000000000BA
S113024000000000000000000000000000000000AA
S1130250000000000000000000000000000000009A
S1130620000000000000007E090909097E00007F27
S1130630494949493100007F494949497600007FC9
S113064001010101010000603826213F6000007FA4
S11306504949494949000077087F0877000000228A
S1130660414141493600007F201008047F00007F8B
S1130670201109047F00007F080814630000007C37
S1130680020101017F00007F0204027F0000007F5D
S1130690080808087F00003E414141413E00007FB8
S11306A0010101017F00007F090909090600003EDC
S11306B04141414122000001017F01010000002766
S11306C0484848483F00001C227F221C0000006369
S11306D0140814630000001F2020203F6000000F56
S11306E0101010107F00007F407F407F0000003F0B
S11306F0203F203F600000017F4444443800007FD5
S1130700444438007F00007F4444444438000022BD
S1130710414149493E00007F083E41413E000046B8
S1130720291111117F0000000000000000000000EA
S113073000000000000000000000000000000000B5
S113074000000000000000000000000000000000A5
S11307500000000000000000000000000000000095
S11307600000000000000000000000000000000085
S11307700000000000000000000000000000000075
S11307800000000000000000000000000000000065
S11307900000000000000000000000000000000055
S11307A00000000000000000000000000000000045
S11307B00000000000000000000000000000000035
S11307C00000000000000000000000000000000025
S11307D00000000000000000000000000000E0F83D
S11307E0FC3E0E0763733F1F0F0682C0F0E0071F35
S11307F03F3E1C8CC6E2F1F8FC7E7F3F1F07000CD5
S113080012CA2490100808905024CA120C00000048
S1130810030C10202142432020100C030000000090
S1130820000000000000110E110E110E0D0E0D112E
S11308300E110D0E07060D11080D0E00000000002C
S113084011241FBECFE5D4E0DEBFCDBF10E0A0E68B
S1130850B0E0E2E7F9E102C005900D92A43CB107D3
S1130860D9F721E0A4ECB0E001C01D92A336B20791
S1130870E1F703D37CC8C4CB28E0829FC0011124D4
S11308808A5D9F4FAFECB0E047ED50E0FC0125914D
S113089034912D930196A417B507C1F78FEC90E01E
S11308A00895CF92DF92EF92FF920F931F93CF930D
S11308B0DF93C82ED92E862FDFDF8C017C0188E0E0
S11308C0E80EF11CCC2DDD2DF80161918F01CE01D4
S11308D0CED121960E151F05B9F7DF91CF911F9147
S11308E00F91FF90EF90DF90CF9008950F931F9397
S11308F0CF93DF93EB016991662331F08C01085F9C
S11309001F4FCFDFC801F7CFDF91CF911F910F9118
S11309100895FC0101900020E9F73197E81BF90BD9
S1130920EE0FFF1FEE0FFF1FEE0FFF1FF695E7956B
S1130930BC0180E490E08E1B9F0BD8DF0895FC017E
S113094001900020E9F731979C012E1B3F0B220FE9
S1130950331F220F331F220F331FBC01C9018058DC
S11309609F4FC4DF089584E380B986B7856A86BF44
S1130970089586B7856986BF0895CF93C82F82E00E
S113098090E09093DE008093DD009093D8008093F4
S1130990D7007ED69093DA008093D900FC011082B0
S11309A0C18388E790E09093DC008093DB00DBDF79
S11309B0CF910895CF92DF92EF92FF920F931F93FE
S11309C0CF93DF937C016B01EB012196CE0160D6BE
S11309D08C0180E4F8018083C114D10459F0F7013B
S11309E0D8011196B7016C0D7D1D91919D93E61769
S11309F0F707D9F7D093DE00C093DD00D093D80079
S1130A00C093D700CE0144D69093DA008093D900E6
S1130A10AE01B8015ED788E790E09093DC00809344
S1130A20DB00C801CDD69FDFDF91CF911F910F91DD
S1130A30FF90EF90DF90CF9008958EEA9EDF87EBD2
S1130A409BE00197F1F700C0000085ED96DF87EB8E
S1130A509BE00197F1F700C0000080E88EDF87EB90
S1130A609BE00197F1F700C0000088EA86DF87EB7E
S1130A709BE00197F1F700C000008FE37EDF87EB76
S1130A809BE00197F1F700C0000083ED76DF87EB70
S1130A909BE00197F1F700C0000080E06EDF87EB78
S1130AA09BE00197F1F700C0000080E466DF87EB6C
S1130AB09BE00197F1F700C000008DE85EDF87EB53
S1130AC09BE00197F1F700C0000084E156DF87EB5B
S1130AD09BE00197F1F700C0000080E24EDF87EB56
S1130AE09BE00197F1F700C0000080E046DF87EB50
S1130AF09BE00197F1F700C0000081EA3EDF87EB3D
S1130B009BE00197F1F700C0000088EC36DF87EB2B
S1130B109BE00197F1F700C000008AED2EDF87EB20
S1130B209BE00197F1F700C0000082E126DF87EB2C
S1130B309BE00197F1F700C0000081E81EDF87EB1E
S1130B409BE00197F1F700C000008FEC16DF87EB04
S1130B509BE00197F1F700C0000089ED0EDF87EB01
S1130B609BE00197F1F700C0000081EF06DF87EBFF
S1130B709BE00197F1F700C000008BEDFEDE87EBF0
S1130B809BE00197F1F700C0000080E4F6DE87EBFC
S1130B909BE00197F1F700C0000084EAEEDE87EBEA
S1130BA09BE00197F1F700C0000086EAE6DE87EBE0
S1130BB09BE00197F1F700C000008FEADEDE87EBCF
S1130BC09BE00197F1F700C000000895CF93C82F70
S1130BD081E2D3DE83E893E00197F1F700C00000DF
S1130BE080E0CBDE83E893E00197F1F700C00000DA
S1130BF08FE7C3DE83E893E00197F1F700C00000BC
S1130C0082E2BBDE83E893E00197F1F700C00000C5
S1130C108C2FB3DE83E893E00197F1F700C0000066
S1130C208C2FABDE83E893E00197F1F700C000005E
S1130C3060E870E08FED90E0BDDE87EC9FEA0197FD
S1130C40F1F700C00000CF91089580E8EFEDF0E0E7
S1130C50DF011D928A95E9F70895CF93F6DFC0E08E
S1130C608C2FB4DFCF5FC830D9F7CF91089581526C
S1130C709F4FFC01608308951F920F920FB60F924D
S1130C8011242F933F934F935F936F937F938F938D
S1130C909F93AF93BF93EF93FF9381B1883181F01A
S1130CA018F4883039F04BC0803209F441C08832DE
S1130CB0E1F045C08091DB0083B985E886BF3FC081
S1130CC0E091DD00F091DE008091D7009091D80092
S1130CD0E81BF90B8091D9009091DA00E80FF91F15
S1130CE0808183B985E886BF2AC08091D70090911E
S1130CF0D80001979093D8008093D700009789F08B
S1130D00E091DD00F091DE00E81BF90B8091D90041
S1130D109091DA00E80FF91F808183B985E886BFD6
S1130D200EC027DE8091D9009091DA0049D507C022
S1130D3020DEC29A8091D9009091DA0041D5FF91CA
S1130D40EF91BF91AF919F918F917F916F915F913F
S1130D504F913F912F910F900FBE0F901F901895B8
S1130D601F920F920FB60F9211242F933F938F93DC
S1130D709F93809167008F5F8C3318F48093670092
S1130D8007C010926700809168008F5F80936800AD
S1130D90809168008C3338F010926800809169006B
S1130DA08F5F8093690080916900883130F01092E0
S1130DB0690010926800109267008091CA0088232D
S1130DC059F1909169008091CD00981334C09091AD
S1130DD068008091CC00981308C0909167008091BE
S1130DE0CB00981302C01092C700909168008091C4
S1130DF0CC00981788F0309167002091CB0032170F
S1130E0010F4891748F48091C700811105C08091BE
S1130E10C8008F5F8093C8008091C8008E3170F045
S1130E201092C8001092CA0013BE1092C50010920E
S1130E30C400C19803C0981778F3D7CF9F918F91BE
S1130E403F912F910F900FBE0F901F9018951F92F6
S1130E500F920FB60F9211248F939F938091C60027
S1130E60809582BF98B382E0892788BB9F918F9138
S1130E700F900FBE0F901F901895CF93DF93CDB7AF
S1130E80DEB762970FB6F894DEBF0FBECDBFF894FD
S1130E90B99A85B38F6085BB78948EB588608EBD12
S1130EA089B7806189BF8EB585608EBD86EC9DE271
S1130EB09BBD8ABD89B7816089BFBFDD8FE295E79D
S1130EC00197F1F700C00000C8DEEFE2F5E73197C3
S1130ED0F1F700C00000212C612C70E040E0A0E09C
S1130EE0332433947E01FAE0EF0EF11C0F2EFAE363
S1130EF0AF2EB12CF02D0F2EF0E38F2E912CF02D70
S1130F008091CA00882309F440C0909169008091BF
S1130F10CD009817D0F1909168008091CC0098177B
S1130F20A0F1309167002091CB00321710F489179B
S1130F3060F58091C700811128C0E091C500F0E000
S1130F40EA5DF74F859194918093C400811104C0A8
S1130F501092C60013BE03C083B7856083BF80911F
S1130F60C400823010F08093C6008091C50091E0E7
S1130F70980F9093C50090916600891728F01092FD
S1130F80C5001092C60013BEC19823B303B30095E5
S1130F90047093B373B2872D80958870782E83B3D1
S1130FA013B31095127043B233B3532C632F617093
S1130FB030FD512C9A9972C050E030E02095309564
S1130FC024703327421B530B9A0122F42227332720
S1130FD0241B350B222309F461C02091CE0022305A
S1130FE061F0233099F1213009F058C0211003C079
S1130FF06894222421F82A9451C02091C9002130F8
S113100079F018F02230B9F049C02091CD002F5F5B
S1131010283118F42093CD0041C01092CD003EC079
S11310202091CC002F5F2C3318F42093CC0036C0D1
S11310301092CC0033C02091CB002F5F2C3318F4D6
S11310402093CB002BC01092CB0028C02091C90064
S1131050213079F018F02230B9F020C020916900D5
S11310602F5F283118F42093690018C0109269008A
S113107015C0209168002F5F2C3318F4209368006A
S11310800DC0109268000AC0209167002F5F2C33B6
S113109018F42093670002C0109267009B997FC0E8
S11310A0272F30E0492F50E0409550954870552740
S11310B0241B350BA90122F444275527421B530B4B
S11310C0442309F46CC09091CE00923059F09330CF
S11310D0C1F1913009F063C02394921508F05FC008
S11310E0212C5DC09091C900913089F018F09230A4
S11310F0D9F055C09091CD00911103C0E8E1E0937F
S1131100CD009091CD0091509093CD0048C0909126
S1131110CC00911103C0FCE3F093CC009091CC007F
S113112091509093CC003BC09091CB00911103C09F
S11311309CE39093CB009091CB0091509093CB0083
S11311402EC09091C900913089F018F09230D9F0F6
S113115026C090916900911103C0E8E1E093690011
S11311609091690091509093690019C09091680022
S1131170911103C0FCE3F0936800909168009150D2
S1131180909368000CC090916700911103C09CE398
S1131190909367009091670091509093670099999C
S11311A01CC0B0E090E08095909582709927A81BB0
S11311B0B90BCD0122F4882799278A1B9B0B88231E
S11311C061F0662351F08091CE00882319F01092CB
S11311D0CE0002C03092CE0040DD989991C0862D99
S11311E090E0432440FACC24C0F8D12C8C199D09FA
S11311F09C0122F422273327281B390B222309F4CC
S11312007FC08091CE008230C1F0833009F446C0A3
S1131210813009F04FC0222021F0E1E02E1641F088
S11312206FC01092C90082E08093CE0016DD68C0C2
S113123083E08093CE0011DD63C0112339F0109256
S1131240CA001092C90009DD1092CE008091C90035
S11312508F5F833018F48093C90052C01092C90084
S11312603092CA009091CD0080916900891710F0E6
S11312703092C7009091CC0080916800891710F0DB
S11312803092C7009091CB0080916700891710F0CD
S11312903092C700E2DC1092CE0045C08091C900B4
S11312A08F5F8093C900833078F111112DC01092A3
S11312B0C9002AC08091CA00882311F19091690065
S11312C08091CD009817E0F0909168008091CC0057
S11312D09817B0F0309167002091CB00321710F4CA
S11312E0891770F48091C70081110AC01092C80058
S11312F01092CA0013BE1092C5001092C400A9989F
S11313008091CE00833011F41DBC1CBC8091CE00B2
S1131310813009F48FC038F0823009F4BBC08330C7
S113132009F432C1AAC1809169004AE0BE016F5F2D
S11313307F4F90E0E9D2809168004AE0BE016C5F83
S11313407F4F90E0E1D2809167004AE0BE01695F7F
S11313507F4F90E0D9D2809169008A3048F4F70138
S113136091828082BE016F5F7F4FC701BBD205C0EF
S1131370BE016F5F7F4FC701C0D2F701019000200B
S1131380E9F73197B182A082809168008A3038F4FD
S1131390F70101900020E9F7319791828082BE0124
S11313A06C5F7F4FC7019ED2F70101900020E9F7DF
S11313B03197B182A082809167008A3038F4F701B6
S11313C001900020E9F7319791828082BE01695F24
S11313D07F4FC70187D239DCC7019BDA84E0F6DB93
S11313E034DC8AE690E095DA82E0F0DB86E0EEDB3E
S11313F02CDC6BE770E082E090E078DA8EE790E036
S113140088DA8091CA00882319F083E890E097DA9B
S113141080E0DCDB1ADC66E870E082E090E066DA0B
S11314208091CA00882319F08CE890E088DA832D33
S1131430CDDB23C10ADC8FE890E06BDA80E0C6DB09
S113144004DC21100EC06AE970E080E090E04EDA1E
S11314506CE970E088E090E049DA82E0B7DBF5DB24
S113146010C06CE970E088E090E040DA82E0AEDB26
S1131470ECDBF1E02F1205C06AE970E080E090E057
S113148035DA69EA70E088E090E030DA83E09EDBE8
S1131490DCDBF3C08091CD004AE0BE016F5F7F4F7B
S11314A090E032D28091CC004AE0BE016C5F7F4F65
S11314B090E02AD28091CB004AE0BE01695F7F4F61
S11314C090E022D28091CD008A3048F4F7019182D5
S11314D08082BE016F5F7F4FC70104D205C0BE0189
S11314E06F5F7F4FC70109D2F70101900020E9F730
S11314F03197B182A0828091CC008A3038F4F70110
S113150001900020E9F7319791828082BE016C5FDF
S11315107F4FC701E7D1F70101900020E9F7319728
S1131520B182A0828091CB008A3038F4F701019017
S11315300020E9F7319791828082BE01695F7F4F75
S1131540C701D0D182DB86EB90E0E3D980E03EDBBB
S11315507CDBC701DED984E039DB77DB8091C9000D
S113156090E001979C01220F331F820F931F880F75
S1131570991F880F991F880F991F68E770E0C89614
S1131580B5D985E023DB79C060DB8CEA90E0C1D972
S113159080E01CDB809169004AE0BE016F5F7F4FF1
S11315A090E0B2D1809168004AE0BE016C5F7F4F49
S11315B090E0AAD1809167004AE0BE01695F7F4F45
S11315C090E0A2D1809169008A3048F4F7019182B9
S11315D08082BE016F5F7F4FC70184D105C0BE0109
S11315E06F5F7F4FC70189D1F70101900020E9F7B0
S11315F03197B182A082809168008A3038F4F70173
S113160001900020E9F7319791828082BE016C5FDE
S11316107F4FC70167D1F70101900020E9F73197A7
S1131620B182A082809167008A3038F4F70101907A
S11316300020E9F7319791828082BE01695F7F4F74
S1131640C70150D102DBC70164D984E0BFDAFDDAF7
S11316508091C90090E001979C01220F331F820FF3
S1131660931F880F991F880F991F880F991F68E788
S113167070E0C8963BD985E0A9DA8FE295E7019737
S1131680F1F700C00000652C772D402FA12F38CC36
S11316900F931F93CF93DF938230910510F482E070
S11316A090E0E0916101F091620120E030E0A0E07F
S11316B0B0E0309719F140815181028113814817BC
S11316C05907C8F08417950769F4109731F01296FA
S11316D00C93129713961C9327C0009361011093E7
S11316E0620122C02115310519F04217530718F47D
S11316F09A01BD01EF01DF01F801DBCF21153105AE
S1131700F9F0281B390B2430310580F48A819B8140
S11317106115710521F0FB019383828304C09093CA
S1131720620180936101FE01329644C0FE01E20F22
S1131730F31F8193919322503109398328833AC04E
S113174020915F0130916001232B41F420916200CC
S1131750309163003093600120935F012091600019
S1131760309161002115310541F42DB73EB7409108
S1131770640050916500241B350BE0915F01F091EA
S11317806001E217F307A0F42E1B3F0B281739075B
S113179078F0AC014E5F5F4F2417350748F04E0FC9
S11317A05F1F5093600140935F018193919302C046
S11317B0E0E0F0E0CF01DF91CF911F910F91089508
S11317C0CF93DF93009709F481C0FC013297138211
S11317D01282A0916101B0916201109781F420817D
S11317E03181820F931F20915F013091600128178E
S11317F0390751F5F0936001E0935F0167C0ED0193
S113180020E030E0CE17DF0740F44A815B819E017F
S113181041155105F1F0EA01F5CFD383C28340812C
S11318205181840F951FC817D90759F4888199816C
S1131830840F951F0296918380838A819B81938371
S113184082832115310529F4F0936201E09361014B
S11318503DC0E901FB83EA8349915991C40FD51F27
S1131860EC17FD0761F480819181840F951F029626
S1131870E90199838883828193819B838A83E0E051
S1131880F0E012968D919C911397009719F0FD0149
S1131890DC01F7CF8D919C9111979D012E5F3F4FF5
S11318A0820F931F20915F0130916001281739073F
S11318B069F4309729F4109262011092610102C018
S11318C013821282B0936001A0935F01DF91CF91E4
S11318D00895FB01DC0102C001900D92415050407B
S11318E0D8F70895FB01DC010D900020E9F711976A
S11318F001900D920020E1F70895FB01DC010190B5
S11319000D920020E1F70895BB274A3031F4992362
S113191022F4BDE2909581959F4F01C0BB27FB0146
S11319205527AA27880F991FAA1FA41710F0A41BD4
S113193083955051B9F7A05DAA3308F0A95DA1932E
S1131940009779F7B111B1931192CB0100C0DC017A
S1131950FC01672F71917723E1F7329704C07C91E2
S11319606D9370836291AE17BF07C8F30895F8941E
S1051970FFCFA3
S11319720000630120001938220C2D2D2D2D2D2D50
S11319822D2D2D2D2D2D2D2D2D2D00F7F800D7C009
S1131992D1DB00FBFC00F9FAD7C3D300FDFE00CD76
S11319A2C0D1D2D0CEC9CAC83A003E00312E20C11D
S11319B2D3C4C8CBDCCDC8CA00322E20D3D1D220A6
S11319C2C2D0C5CCDF00D3D1D220C1D3C4C8CBDCB2
S10719D2CDC8CA00AE
S9030000FC
