S01300005457492D616B612D4932432E73726563D8
S113000031C44BC44AC449C448C447C4C1C645C426
S113001044C435C742C441C440C43FC43EC43DC4C3
S11300203CC43CC63AC400000000000000000000CC
S113003000000000000000000000000000000000BC
S113004000000000000000000000000000000000AC
S1130050000000000000000000000000000000009C
S1130060000000000000000000000000000000008C
S1130070000000000000000000000000000000007C
S1130080000000000000000000000000000000006C
S1130090000000000000000000000000000000005C
S11300A0000000000000000000000000000000004C
S11300B0000000000000000000000000000000003C
S11300C0000000000000000000000000000000002C
S11300D0000000000000000000000000000000001C
S11300E0000000000000000000000000000000000C
S11300F000000000000000000000000000000000FC
S113010000000000000000000000000000000000EB
S113011000000000000000000000000000000000DB
S113012000000000000000000000000000000000CB
S113013000000000000000000000000000000000BB
S113014000000000000000000000000000000000AB
S1130150000000000000000000000000000000009B
S1130160000000000000000000000000000000008B
S1130170000000000000000000000000000000007B
S1130180000000000000000000000000000000006B
S1130190080808080000006060000000000000007B
S11301A0000000000000003E615149453E0000404F
S11301B0427F404000000062514949494600002204
S11301C0414149493600001814127F1010000027DD
S11301D0494949493100003E494949493200000131
S11301E001710905030000364949494936000026D2
S11301F0494949493E0000000066660000000000CD
S113020000000000000000000000000000000000EA
S1130210000000000000000000412214080000005B
S113022000000000000000000000000000000000CA
S113023000000000000000000000000000000000BA
S113024000000000000000000000000000000000AA
S1130250000000000000000000000000000000009A
S1130620000000000000007E090909097E00007F27
S1130630494949493100007F494949497600007FC9
S113064001010101010000603826213F6000007FA4
S11306504949494949000077087F0877000000228A
S1130660414141493600007F201008047F00007F8B
S1130670201109047F00007F080814630000007C37
S1130680020101017F00007F0204027F0000007F5D
S1130690080808087F00003E414141413E00007FB8
S11306A0010101017F00007F090909090600003EDC
S11306B04141414122000001017F01010000002766
S11306C0484848483F00001C227F221C0000006369
S11306D0140814630000001F2020203F6000000F56
S11306E0101010107F00007F407F407F0000003F0B
S11306F0203F203F600000017F4444443800007FD5
S1130700444438007F00007F4444444438000022BD
S1130710414149493E00007F083E41413E000046B8
S1130720291111117F0000000000000000000000EA
S113073000000000000000000000000000000000B5
S113074000000000000000000000000000000000A5
S11307500000000000000000000000000000000095
S11307600000000000000000000000000000000085
S11307700000000000000000000000000000000075
S11307800000000000000000000000000000000065
S11307900000000000000000000000000000000055
S11307A00000000000000000000000000000000045
S11307B00000000000000000000000000000000035
S11307C00000000000000000000000000000000025
S11307D00000000000000000000000000000E0F83D
S11307E0FC3E0E0763733F1F0F0682C0F0E0071F35
S11307F03F3E1C8CC6E2F1F8FC7E7F3F1F070000E1
S113080000000000000000000000000000000000E4
S113081000000000000000000000000000000000D4
S113082000000000000005000500050000070500A9
S1130830070009000B080908050005000007050B5F
S11308400800050005000500000705000700090B66
S1130850080907000900090B08090007050B08002F
S11308600500050011241FBECFE5D4E0DEBFCDBFD7
S113087010E0A0E6B0E0EAE8F9E102C005900D92CC
S1130880A43CB107D9F721E0A4ECB0E001C01D926B
S1130890A636B207E1F709D376C8B2CB28E0829F27
S11308A0C00111248A5D9F4FA2EDB0E04AED50E0F3
S11308B0FC01259134912D930196A417B507C1F736
S11308C082ED90E00895CF92DF92EF92FF920F9322
S11308D01F93CF93DF93C82ED92E862FDFDF8C0191
S11308E07C0188E0E80EF11CCC2DDD2DF80161912E
S11308F08F01CE01CED121960E151F05B9F7DF91D8
S1130900CF911F910F91FF90EF90DF90CF900895BA
S11309100F931F93CF93DF93EB016991662331F01B
S11309208C01085F1F4FCFDFC801F7CFDF91CF9154
S11309301F910F910895FC0101900020E9F7319770
S1130940E81BF90BEE0FFF1FEE0FFF1FEE0FFF1F4B
S1130950F695E795BC0180E490E08E1B9F0BD8DFF1
S11309600895FC0101900020E9F731979C012E1BAA
S11309703F0B220F331F220F331F220F331FBC01E3
S1130980C90180589F4FC4DF089580E280B986B7BB
S1130990856A86BF089586B7856986BF0895CF9313
S11309A0C82F82E090E09093E1008093E000909360
S11309B0DB008093DA0078D69093DD008093DC002E
S11309C0FC011082C18388E790E09093DF0080935C
S11309D0DE00DBDFCF910895CF92DF92EF92FF929A
S11309E00F931F93CF93DF937C016B01EB0121964F
S11309F0CE015AD68C0180E4F8018083C114D1045D
S1130A0059F0F701D8011196B7016C0D7D1D919134
S1130A109D93E617F707D9F7D093E100C093E00060
S1130A20D093DB00C093DA00CE013ED69093DD0074
S1130A308093DC00AE01B80158D788E790E090932A
S1130A40DF008093DE00C801C7D69FDFDF91CF911E
S1130A501F910F91FF90EF90DF90CF9008958EEA51
S1130A609EDF8FEC97E00197F1F700C0000085ED61
S1130A7096DF8FEC97E00197F1F700C0000080E863
S1130A808EDF8FEC97E00197F1F700C0000088EA51
S1130A9086DF8FEC97E00197F1F700C000008FE349
S1130AA07EDF8FEC97E00197F1F700C0000083ED43
S1130AB076DF8FEC97E00197F1F700C0000080E04B
S1130AC06EDF8FEC97E00197F1F700C0000080E43F
S1130AD066DF8FEC97E00197F1F700C000008DE826
S1130AE05EDF8FEC97E00197F1F700C0000084E12E
S1130AF056DF8FEC97E00197F1F700C0000080E229
S1130B004EDF8FEC97E00197F1F700C0000080E022
S1130B1046DF8FEC97E00197F1F700C0000081EA0F
S1130B203EDF8FEC97E00197F1F700C0000088ECFE
S1130B3036DF8FEC97E00197F1F700C000008AEDF3
S1130B402EDF8FEC97E00197F1F700C0000082E1FF
S1130B5026DF8FEC97E00197F1F700C0000081E8F1
S1130B601EDF8FEC97E00197F1F700C000008FECD7
S1130B7016DF8FEC97E00197F1F700C0000089EDD4
S1130B800EDF8FEC97E00197F1F700C0000081EFD2
S1130B9006DF8FEC97E00197F1F700C000008BEDC2
S1130BA0FEDE8FEC97E00197F1F700C0000080E4CF
S1130BB0F6DE8FEC97E00197F1F700C0000084EABD
S1130BC0EEDE8FEC97E00197F1F700C0000086EAB3
S1130BD0E6DE8FEC97E00197F1F700C000008FEAA2
S1130BE0DEDE8FEC97E00197F1F700C00000089576
S1130BF0CF93C82F81E2D3DE87E592E00197F1F726
S1130C0000C0000080E0CBDE87E592E00197F1F7B9
S1130C1000C000008FE7C3DE87E592E00197F1F79B
S1130C2000C0000082E2BBDE87E592E00197F1F7A5
S1130C3000C000008C2FB3DE87E592E00197F1F746
S1130C4000C000008C2FABDE87E592E00197F1F73E
S1130C5000C0000060E870E082EE90E0BDDE8FE24C
S1130C6095E70197F1F700C00000CF91089580E85F
S1130C70E2EEF0E0DF011D928A95E9F70895CF9343
S1130C80F6DFC0E08C2FB4DFCF5FC830D9F7CF9147
S1130C9008958E519F4FFC01608308951F920F9217
S1130CA00FB60F9211242F933F934F935F936F933B
S1130CB07F938F939F93AF93BF93EF93FF9381B1F0
S1130CC0883181F018F4883039F051C0803209F449
S1130CD047C08832E1F04BC08091DE0083B985E8DB
S1130CE086BF45C0E091E000F091E1008091DA0018
S1130CF09091DB00E81BF90B8091DC009091DD0002
S1130D00E80FF91F808183B985E886BF30C08091E0
S1130D10DA009091DB0001979093DB008093DA0076
S1130D20892BB1F0C098E091E000F091E10080914E
S1130D30DA009091DB00E81BF90B8091DC009091C4
S1130D40DD00E80FF91F808183B985E886BF0FC0F5
S1130D5022DEC09A8091DC009091DD003DD507C071
S1130D601ADEC19A8091DC009091DD0035D5FF91A7
S1130D70EF91BF91AF919F918F917F916F915F910F
S1130D804F913F912F910F900FBE0F901F90189588
S1130D901F920F920FB60F9211242F933F938F93AC
S1130DA09F938091CA00882359F19091D10080913A
S1130DB0CD00981358C09091D0008091CC00981326
S1130DC008C09091CF008091CB00981302C010927C
S1130DD0C7009091D0008091CC00981788F0309192
S1130DE0CF002091CB00321710F4891748F480917A
S1130DF0C700811105C08091C8008F5F8093C8002F
S1130E008091C8008A3050F01092C8001092CA0035
S1130E1013BE1092C5001092C400C3988091CF00F5
S1130E208F5F8C3318F48093CF0007C01092CF00EB
S1130E308091D0008F5F8093D0008091D0008C335C
S1130E4038F01092D0008091D1008F5F8093D10050
S1130E508091D100883150F01092D1001092D000CE
S1130E601092CF0003C0981758F2B3CF9F918F917F
S1130E703F912F910F900FBE0F901F9018951F92C6
S1130E800F920FB60F9211248F939F938091C600F7
S1130E90809582BF98B388E0892788BB9F918F9102
S1130EA00F900FBE0F901F901895CF93DF93CDB77F
S1130EB0DEB762970FB6F894DEBF0FBECDBF87B31F
S1130EC08B6087BBF89488B3806F88BB8EB58860CD
S1130ED08EBD89B7806189BF83E89EE19BBD8ABDD1
S1130EE08EB585608EBD89B7816089BF7894B7DD82
S1130EF08FE19EE40197F1F700C00000512C612CB2
S1130F0060E040E090E00F2EFCE33F2EF02D0F2E2A
S1130F10F8E12F2EF02D442443946E01EAE0CE0E26
S1130F20D11C0F2EFAE3AF2EB12CF02D0F2EF0E3CF
S1130F308F2E912CF02D8091CA008823D1F120911D
S1130F40D1008091CD002817A0F12091D00080918C
S1130F50CC00281770F15091CF003091CB0053177B
S1130F6010F4821730F58091C700811122C0E091FE
S1130F70C500F0E0EA5DF74F259134912093C40059
S1130F80211102C013BE03C083B7856083BF809163
S1130F90C400813011F08093C6008091C50021E027
S1130FA0280F2093C50020916600821710F010923C
S1130FB0C50026B3E6B28E2D80958071E82E76B3F7
S1130FC076B2872D80958072782E86B306B300950D
S1130FD00074F6B216B310951078B49972C050E04C
S1130FE030E02095309520713327421B530B9A0132
S1130FF022F422273327241B350B222309F461C052
S11310002091CE00223061F0233099F1213009F093
S113101058C0511003C06894552451F85A9451C0D3
S11310202091C900213079F018F02230B9F049C07C
S11310302091CD002F5F283118F42093CD0041C0BA
S11310401092CD003EC02091CC002F5F2C3318F4B9
S11310502093CC0036C01092CC0033C02091CB003A
S11310602F5F2C3318F42093CB002BC01092CB00AD
S113107028C02091C900213079F018F02230B9F04D
S113108020C02091D1002F5F283118F42093D10083
S113109018C01092D10015C02091D0002F5F2C33BE
S11310A018F42093D0000DC01092D0000AC02091F3
S11310B0CF002F5F2C3318F42093CF0002C010927E
S11310C0CF00B5997BC0462F50E0272F30E0209504
S11310D0309520723327BA01621B730B9B0122F4F3
S11310E022273327261B370B222309F467C02091BC
S11310F0CE00223061F02330B1F1213009F05EC01E
S11311005394F1E0F51508F059C0512C57C02091C3
S1131110C900213081F018F02230C9F04FC020916D
S1131120CD00211102C02092CD002091CD0021508C
S11311302093CD0043C02091CC00211102C03092F5
S1131140CC002091CC0021502093CC0037C02091BA
S1131150CB00211102C03092CB002091CB00215052
S11311602093CB002BC02091C900213081F018F0CE
S11311702230C9F023C02091D100211102C0209255
S1131180D1002091D10021502093D10017C020918B
S1131190D000211102C03092D0002091D000215003
S11311A02093D0000BC02091CF00211102C03092B7
S11311B0CF002091CF0021502093CF00B6991EC0BC
S11311C0292F30E090E08095909580749927281B12
S11311D0390BC901992324F488279927821B930B7F
S11311E0882361F011110AC08091CE00882319F080
S11311F01092CE0002C04092CE0041DDB79993C058
S1131200262D30E08F2D90E0809590958078992759
S1131210A901481B590B9A0122F422273327241BC6
S1131220350B222309F47FC08091CE008230C1F0B7
S1131230833009F446C0813009F04FC0552021F0B5
S113124051E0551641F06FC01092C90082E08093BE
S1131250CE0015DD68C083E08093CE0010DD63C04E
S1131260002339F01092CA001092C90008DD1092D0
S1131270CE008091C9008F5F833018F48093C90039
S113128052C01092C9004092CA009091CD00809142
S1131290D100891710F04092C7009091CC00809142
S11312A0D000891710F04092C7009091CB00809134
S11312B0CF00891710F04092C700E1DC1092CE00F5
S11312C045C08091C9008F5F8093C900833078F155
S11312D001112DC01092C9002AC08091CA00882330
S11312E011F19091D1008091CD009817E0F0909188
S11312F0D0008091CC009817B0F03091CF002091AD
S1131300CB00321710F4891770F48091C700811153
S11313100AC01092C8001092CA0013BE1092C500F1
S11313201092C400C3988091CE00833011F41DBC88
S11313301CBC8091CE00813009F488C038F0823022
S113134009F4B4C0833009F42BC1A3C18091D10046
S11313504AE0BE016F5F7F4F90E0E2D28091D000FF
S11313604AE0BE016C5F7F4F90E0DAD28091CF00FB
S11313704AE0BE01695F7F4F90E0D2D28091D100F4
S11313808A3048F4F60191828082BE016F5F7F4FFC
S1131390C601B4D205C0BE016F5F7F4FC601B9D28A
S11313A0F60101900020E9F73197B182A082809183
S11313B0D0008A3038F4F60101900020E9F7319723
S11313C091828082BE016C5F7F4FC60197D2F60185
S11313D001900020E9F73197B182A0828091CF007B
S11313E08A3038F4F60101900020E9F731979182B0
S11313F08082BE01695F7F4FC60180D238DCC6019E
S11314009ADA84E0F5DB33DC87E690E094DA82E074
S1131410EFDB86E0EDDB2BDC68E770E082E090E058
S113142077DA8BE790E087DA80E0E2DB20DC60E8C3
S113143070E082E090E06CDA8091CA00882319F0B1
S113144086E890E08EDA842DD3DB23C110DC8FE8AC
S113145090E071DA80E0CCDB0ADC51100EC06AE95E
S113146070E080E090E054DA6CE970E088E090E0AD
S11314704FDA82E0BDDBFBDB10C06CE970E088E092
S113148090E046DA82E0B4DBF2DBF1E05F1205C003
S11314906AE970E080E090E03BDA69EA70E088E0B5
S11314A090E036DA83E0A4DBE2DBF3C08091CD0088
S11314B04AE0BE016F5F7F4F90E032D28091CC0052
S11314C04AE0BE016C5F7F4F90E02AD28091CB004E
S11314D04AE0BE01695F7F4F90E022D28091CD0047
S11314E08A3048F4F60191828082BE016F5F7F4F9B
S11314F0C60104D205C0BE016F5F7F4FC60109D289
S1131500F60101900020E9F73197B182A082809121
S1131510CC008A3038F4F60101900020E9F73197C5
S113152091828082BE016C5F7F4FC601E7D1F601D4
S113153001900020E9F73197B182A0828091CB001D
S11315408A3038F4F60101900020E9F7319791824E
S11315508082BE01695F7F4FC601D0D188DB86EBF4
S113156090E0E9D980E044DB82DBC601E4D984E081
S11315703FDB7DDB8091C90090E001979C01220F45
S1131580331F820F931F880F991F880F991F880F8D
S1131590991F65E770E0C896BBD985E029DB79C05F
S11315A066DB8CEA90E0C7D980E022DB8091D10031
S11315B04AE0BE016F5F7F4F90E0B2D18091D000CE
S11315C04AE0BE016C5F7F4F90E0AAD18091CF00CA
S11315D04AE0BE01695F7F4F90E0A2D18091D100C3
S11315E08A3048F4F60191828082BE016F5F7F4F9A
S11315F0C60184D105C0BE016F5F7F4FC60189D18A
S1131600F60101900020E9F73197B182A082809120
S1131610D0008A3038F4F60101900020E9F73197C0
S113162091828082BE016C5F7F4FC60167D1F60153
S113163001900020E9F73197B182A0828091CF0018
S11316408A3038F4F60101900020E9F7319791824D
S11316508082BE01695F7F4FC60150D108DBC6019D
S11316606AD984E0C5DA03DB8091C90090E0019770
S11316709C01220F331F820F931F880F991F880F1D
S1131680991F880F991F65E770E0C89641D985E0D6
S1131690AFDA8FE19EE40197F1F700C00000612EFC
S11316A0672D4E2D902F47CC0F931F93CF93DF932D
S11316B08230910510F482E090E0E0916401F091B1
S11316C0650120E030E0A0E0B0E0309719F14081FE
S11316D051810281138148175907C8F0841795076F
S11316E069F4109731F012960C93129713961C9389
S11316F027C0009364011093650122C021153105B0
S113170019F04217530718F49A01BD01EF01DF01E4
S1131710F801DBCF21153105F9F0281B390B2430F2
S1131720310580F48A819B816115710521F0FB01EB
S11317309383828304C09093650180936401FE01C6
S1131740329644C0FE01E20FF31F8193919322501D
S11317503109398328833AC02091620130916301B1
S1131760232B41F420916200309163003093630194
S113177020936201209160003091610021153105B0
S113178041F42DB73EB74091640050916500241B8D
S1131790350BE0916201F0916301E217F307A0F4C5
S11317A02E1B3F0B2817390778F0AC014E5F5F4FB3
S11317B02417350748F04E0F5F1F50936301409381
S11317C062018193919302C0E0E0F0E0CF01DF91E8
S11317D0CF911F910F910895CF93DF93009709F450
S11317E081C0FC01329713821282A0916401B091EE
S11317F06501109781F420813181820F931F20911C
S11318006201309163012817390751F5F0936301A0
S1131810E093620167C0ED0120E030E0CE17DF07FE
S113182040F44A815B819E0141155105F1F0EA01C2
S1131830F5CFD383C28340815181840F951FC8178C
S1131840D90759F488819981840F951F0296918351
S113185080838A819B81938382832115310529F4B6
S1131860F0936501E09364013DC0E901FB83EA83E1
S113187049915991C40FD51FEC17FD0761F480817C
S11318809181840F951F0296E9019983888382814F
S113189093819B838A83E0E0F0E012968D919C9182
S11318A01397009719F0FD01DC01F7CF8D919C91FE
S11318B011979D012E5F3F4F820F931F209162016C
S11318C0309163012817390769F4309729F410928D
S11318D065011092640102C013821282B093630105
S11318E0A0936201DF91CF910895FB01DC0102C056
S11318F001900D9241505040D8F70895FB01DC014E
S11319000D900020E9F7119701900D920020E1F766
S11319100895FB01DC0101900D920020E1F7089588
S1131920BB274A3031F4992322F4BDE29095819586
S11319309F4F01C0BB27FB015527AA27880F991F7A
S1131940AA1FA41710F0A41B83955051B9F7A05DEA
S1131950AA3308F0A95DA193009779F7B111B19367
S11319601192CB0100C0DC01FC01672F7191772338
S1131970E1F7329704C07C916D9370836291AE1746
S10D1980BF07C8F30895F894FFCFE1
S113198A0000660120003E2D2D2D2D2D2D2D2D2DEF
S113199A2D2D2D2D2D2D2D00F7F800D7C0D1DB00CC
S11319AAF9FAD7C3D300C1D3C43A20C2CACB00CDF3
S11319BAC0D1D2D0CEC9CAC83A003E00312E20C105
S11319CAD3C4C8CBDCCDC8CA00322E20D3D1D2208E
S11319DAC2D0C5CCDF00D3D1D220C1D3C4C8CBDC9A
S10719EACDC8CA0096
S9030000FC
