S01300005457492D616B612D4932432E73726563D8
S113000031C44BC44AC449C448C447C4BBC645C42C
S113001044C430C742C441C440C43FC43EC43DC4C8
S11300203CC43CC63AC400000000000000000000CC
S113003000000000000000000000000000000000BC
S113004000000000000000000000000000000000AC
S1130050000000000000000000000000000000009C
S1130060000000000000000000000000000000008C
S1130070000000000000000000000000000000007C
S1130080000000000000000000000000000000006C
S1130090000000000000000000000000000000005C
S11300A0000000000000000000000000000000004C
S11300B0000000000000000000000000000000003C
S11300C0000000000000000000000000000000002C
S11300D0000000000000000000000000000000001C
S11300E0000000000000000000000000000000000C
S11300F000000000000000000000000000000000FC
S113010000000000000000000000000000000000EB
S113011000000000000000000000000000000000DB
S113012000000000000000000000000000000000CB
S113013000000000000000000000000000000000BB
S113014000000000000000000000000000000000AB
S1130150000000000000000000000000000000009B
S1130160000000000000000000000000000000008B
S1130170000000000000000000000000000000007B
S1130180000000000000000000000000000000006B
S1130190080808080000006060000000000000007B
S11301A0000000000000003E615149453E0000404F
S11301B0427F404000000062514949494600002204
S11301C0414149493600001814127F1010000027DD
S11301D0494949493100003E494949493200000131
S11301E001710905030000364949494936000026D2
S11301F0494949493E0000000066660000000000CD
S113020000000000000000000000000000000000EA
S1130210000000000000000000412214080000005B
S113022000000000000000000000000000000000CA
S113023000000000000000000000000000000000BA
S113024000000000000000000000000000000000AA
S1130250000000000000000000000000000000009A
S1130620000000000000007E090909097E00007F27
S1130630494949493100007F494949497600007FC9
S113064001010101010000603826213F6000007FA4
S11306504949494949000077087F0877000000228A
S1130660414141493600007F201008047F00007F8B
S1130670201109047F00007F080814630000007C37
S1130680020101017F00007F0204027F0000007F5D
S1130690080808087F00003E414141413E00007FB8
S11306A0010101017F00007F090909090600003EDC
S11306B04141414122000001017F01010000002766
S11306C0484848483F00001C227F221C0000006369
S11306D0140814630000001F2020203F6000000F56
S11306E0101010107F00007F407F407F0000003F0B
S11306F0203F203F600000017F4444443800007FD5
S1130700444438007F00007F4444444438000022BD
S1130710414149493E00007F083E41413E000046B8
S1130720291111117F0000000000000000000000EA
S113073000000000000000000000000000000000B5
S113074000000000000000000000000000000000A5
S11307500000000000000000000000000000000095
S11307600000000000000000000000000000000085
S11307700000000000000000000000000000000075
S11307800000000000000000000000000000000065
S11307900000000000000000000000000000000055
S11307A00000000000000000000000000000000045
S11307B00000000000000000000000000000000035
S11307C00000000000000000000000000000000025
S11307D00000000000000000000000000000E0F83D
S11307E0FC3E0E0763733F1F0F0682C0F0E0071F35
S11307F03F3E1C8CC6E2F1F8FC7E7F3F1F07000CD5
S113080012CA2490100808905024CA120C00000048
S1130810030C10202142432020100C030000000090
S113082000000000000004000400040000050400AF
S11308300500070008060706040004000005040874
S11308400600040004000400000504000500070875
S11308500607050007000708060700050408060048
S11308600400040011241FBECFE5D4E0DEBFCDBFD9
S113087010E0A0E6B0E0EAE8F9E102C005900D92CC
S1130880A43CB107D9F721E0A4ECB0E001C01D926B
S1130890A436B207E1F705D376C8B2CB28E0829F2D
S11308A0C00111248A5D9F4FA0EDB0E048ED50E0F7
S11308B0FC01259134912D930196A417B507C1F736
S11308C080ED90E00895CF92DF92EF92FF920F9324
S11308D01F93CF93DF93C82ED92E862FDFDF8C0191
S11308E07C0188E0E80EF11CCC2DDD2DF80161912E
S11308F08F01CE01CED121960E151F05B9F7DF91D8
S1130900CF911F910F91FF90EF90DF90CF900895BA
S11309100F931F93CF93DF93EB016991662331F01B
S11309208C01085F1F4FCFDFC801F7CFDF91CF9154
S11309301F910F910895FC0101900020E9F7319770
S1130940E81BF90BEE0FFF1FEE0FFF1FEE0FFF1F4B
S1130950F695E795BC0180E490E08E1B9F0BD8DFF1
S11309600895FC0101900020E9F731979C012E1BAA
S11309703F0B220F331F220F331F220F331FBC01E3
S1130980C90180589F4FC4DF089586E180B986B7B6
S1130990856A86BF089586B7856986BF0895CF9313
S11309A0C82F82E090E09093DF008093DE00909364
S11309B0D9008093D80078D69093DB008093DA0036
S11309C0FC011082C18388E790E09093DD0080935E
S11309D0DC00DBDFCF910895CF92DF92EF92FF929C
S11309E00F931F93CF93DF937C016B01EB0121964F
S11309F0CE015AD68C0180E4F8018083C114D1045D
S1130A0059F0F701D8011196B7016C0D7D1D919134
S1130A109D93E617F707D9F7D093DF00C093DE0064
S1130A20D093D900C093D800CE013ED69093DB007A
S1130A308093DA00AE01B80158D788E790E090932C
S1130A40DD008093DC00C801C7D69FDFDF91CF9122
S1130A501F910F91FF90EF90DF90CF9008958EEA51
S1130A609EDF8BED95E00197F1F700C0000085ED66
S1130A7096DF8BED95E00197F1F700C0000080E868
S1130A808EDF8BED95E00197F1F700C0000088EA56
S1130A9086DF8BED95E00197F1F700C000008FE34E
S1130AA07EDF8BED95E00197F1F700C0000083ED48
S1130AB076DF8BED95E00197F1F700C0000080E050
S1130AC06EDF8BED95E00197F1F700C0000080E444
S1130AD066DF8BED95E00197F1F700C000008DE82B
S1130AE05EDF8BED95E00197F1F700C0000084E133
S1130AF056DF8BED95E00197F1F700C0000080E22E
S1130B004EDF8BED95E00197F1F700C0000080E027
S1130B1046DF8BED95E00197F1F700C0000081EA14
S1130B203EDF8BED95E00197F1F700C0000088EC03
S1130B3036DF8BED95E00197F1F700C000008AEDF8
S1130B402EDF8BED95E00197F1F700C0000082E104
S1130B5026DF8BED95E00197F1F700C0000081E8F6
S1130B601EDF8BED95E00197F1F700C000008FECDC
S1130B7016DF8BED95E00197F1F700C0000089EDD9
S1130B800EDF8BED95E00197F1F700C0000081EFD7
S1130B9006DF8BED95E00197F1F700C000008BEDC7
S1130BA0FEDE8BED95E00197F1F700C0000080E4D4
S1130BB0F6DE8BED95E00197F1F700C0000084EAC2
S1130BC0EEDE8BED95E00197F1F700C0000086EAB8
S1130BD0E6DE8BED95E00197F1F700C000008FEAA7
S1130BE0DEDE8BED95E00197F1F700C0000008957B
S1130BF0CF93C82F81E2D3DE81EC91E00197F1F726
S1130C0000C0000080E0CBDE81EC91E00197F1F7B9
S1130C1000C000008FE7C3DE81EC91E00197F1F79B
S1130C2000C0000082E2BBDE81EC91E00197F1F7A5
S1130C3000C000008C2FB3DE81EC91E00197F1F746
S1130C4000C000008C2FABDE81EC91E00197F1F73E
S1130C5000C0000060E870E080EE90E0BDDE83EE4E
S1130C6097E50197F1F700C00000CF91089580E85F
S1130C70E0EEF0E0DF011D928A95E9F70895CF9345
S1130C80F6DFC0E08C2FB4DFCF5FC830D9F7CF9147
S1130C90089580529F4FFC01608308951F920F9224
S1130CA00FB60F9211242F933F934F935F936F933B
S1130CB07F938F939F93AF93BF93EF93FF9381B1F0
S1130CC0883181F018F4883039F04BC0803209F44F
S1130CD041C08832E1F045C08091DC0083B985E8E9
S1130CE086BF3FC0E091DE00F091DF008091D80024
S1130CF09091D900E81BF90B8091DA009091DB0008
S1130D00E80FF91F808183B985E886BF2AC08091E6
S1130D10D8009091D90001979093D9008093D8007E
S1130D20009789F0E091DE00F091DF00E81BF90BF9
S1130D308091DA009091DB00E80FF91F808183B97C
S1130D4085E886BF0EC027DE8091DA009091DB0033
S1130D5043D507C020DEC29A8091DA009091DB006F
S1130D603BD5FF91EF91BF91AF919F918F917F916F
S1130D706F915F914F913F912F910F900FBE0F9004
S1130D801F9018951F920F920FB60F9211242F9354
S1130D903F938F939F9378948091CD008F5F8C3392
S1130DA018F48093CD0007C01092CD008091CE003E
S1130DB08F5F8093CE008091CE008C3338F01092F8
S1130DC0CE008091CF008F5F8093CF008091CF00C1
S1130DD0883130F01092CF001092CE001092CD00E6
S1130DE080916700882359F19091CF008091CB00C6
S1130DF0981334C09091CE008091CA00981308C013
S1130E009091CD0080916800981302C01092C700A1
S1130E109091CE008091CA00981788F03091CD004F
S1130E2020916800321710F4891748F48091C700A4
S1130E30811105C08091C8008F5F8093C8008091A4
S1130E40C8008A3070F01092C8001092670013BE78
S1130E501092C5001092C400C19803C0981778F38B
S1130E60D7CF9F918F913F912F910F900FBE0F90ED
S1130E701F9018951F920F920FB60F9211248F9303
S1130E809F9378948091C600809582BF98B382E046
S1130E90892788BB9F918F910F900FBE0F901F9051
S1130EA01895CF93DF93CDB7DEB762970FB6F8945A
S1130EB0DEBF0FBECDBFF89485B38F6085BB789439
S1130EC08EB588608EBD89B7806189BF8EB5856017
S1130ED08EBD82EE96E19BBD8ABD89B7816089BFD4
S1130EE0BEDD87E99AE30197F1F700C00000C7DE91
S1130EF0E7E9FAE33197F1F700C00000212C612CF7
S1130F0070E040E0A0E0332433947E01FAE0EF0E79
S1130F10F11C0F2EFAE3AF2EB12CF02D0F2EF0E3BF
S1130F208F2E912CF02D809167008823D1F1909120
S1130F30CF008091CB009817A0F19091CE008091C2
S1130F40CA00981770F13091CD00209168003217D3
S1130F5010F4891730F58091C700811122C0E09107
S1130F60C500F0E0EA5DF74F859194918093C40049
S1130F70811102C013BE03C083B7856083BF809113
S1130F80C400813011F08093C6008091C50091E0C7
S1130F90980F9093C50090916600891710F01092F5
S1130FA0C50023B303B30095047093B373B2872DC4
S1130FB080958870782E83B313B31095127043B262
S1130FC033B3532C632F617030FD512C9A9972C046
S1130FD050E030E02095309524703327421B530BAA
S1130FE09A0122F422273327241B350B222309F4E8
S1130FF061C02091CC00223061F0233099F121307E
S113100009F058C0211003C06894222421F82A94BE
S113101051C02091C900213079F018F02230B9F084
S113102049C02091CB002F5F283118F42093CB00C6
S113103041C01092CB003EC02091CA002F5F2C33D8
S113104018F42093CA0036C01092CA0033C020910D
S113105068002F5F2C3318F4209368002BC0109283
S1131060680028C02091C900213079F018F022309E
S1131070B9F020C02091CF002F5F283118F42093BD
S1131080CF0018C01092CF0015C02091CE002F5F62
S11310902C3318F42093CE000DC01092CE000AC059
S11310A02091CD002F5F2C3318F42093CD0002C083
S11310B01092CD009B997FC0272F30E0492F50E03C
S11310C04095509548705527241B350BA90122F4EF
S11310D044275527421B530B442309F46CC09091B9
S11310E0CC00923059F09330C1F1913009F063C0D3
S11310F02394921508F05FC0212C5DC09091C90023
S1131100913089F018F09230D9F055C09091CB000D
S1131110911103C0E8E1E093CB009091CB00915092
S11311209093CB0048C09091CA00911103C0FCE396
S1131130F093CA009091CA0091509093CA003BC0AA
S113114090916800911103C09CE390936800909182
S113115068009150909368002EC09091C90091301E
S113116089F018F09230D9F026C09091CF009111F7
S113117003C0E8E1E093CF009091CF0091509093A9
S1131180CF0019C09091CE00911103C0FCE3F093FD
S1131190CE009091CE0091509093CE000CC09091CF
S11311A0CD00911103C09CE39093CD009091CD00AC
S11311B091509093CD0099991CC0B0E090E0809537
S11311C0909582709927A81BB90BCD0122F488272A
S11311D099278A1B9B0B882361F0662351F0809129
S11311E0CC00882319F01092CC0002C03092CC00BD
S11311F046DD989991C0862D90E0432440FACC2492
S1131200C0F8D12C8C199D099C0122F42227332784
S1131210281B390B222309F47FC08091CC00823033
S1131220C1F0833009F446C0813009F04FC0222058
S113123021F0E1E02E1641F06FC01092C90082E067
S11312408093CC001CDD68C083E08093CC0017DD64
S113125063C0112339F0109267001092C9000FDDAA
S11312601092CC008091C9008F5F833018F4809372
S1131270C90052C01092C900309267009091CB000F
S11312808091CF00891710F03092C7009091CA0066
S11312908091CE00891710F03092C70090916800B9
S11312A08091CD00891710F03092C700E8DC1092CD
S11312B0CC0045C08091C9008F5F8093C900833002
S11312C078F111112DC01092C9002AC080916700D5
S11312D0882311F19091CF008091CB009817E0F012
S11312E09091CE008091CA009817B0F03091CD0053
S11312F020916800321710F4891770F48091C700A8
S113130081110AC01092C8001092670013BE109297
S1131310C5001092C400A9988091CC00833011F4C8
S11313201DBC1CBC8091CC00813009F48FC038F006
S1131330823009F4BBC0833009F432C1AAC1809160
S1131340CF004AE0BE016F5F7F4F90E0E9D2809109
S1131350CE004AE0BE016C5F7F4F90E0E1D2809105
S1131360CD004AE0BE01695F7F4F90E0D9D2809101
S1131370CF008A3048F4F70191828082BE016F5F0A
S11313807F4FC701BBD205C0BE016F5F7F4FC7014E
S1131390C0D2F70101900020E9F73197B182A08211
S11313A08091CE008A3038F4F70101900020E9F7EB
S11313B0319791828082BE016C5F7F4FC7019ED2BC
S11313C0F70101900020E9F73197B182A082809162
S11313D0CD008A3038F4F70101900020E9F7319705
S11313E091828082BE01695F7F4FC70187D23FDC53
S11313F0C701A1DA84E0FCDB3ADC89E690E09BDA01
S113140082E0F6DB86E0F4DB32DC6AE770E082E05F
S113141090E07EDA8DE790E08EDA80916700882391
S113142019F082E890E09DDA80E0E2DB20DC65E8F8
S113143070E082E090E06CDA80916700882319F014
S11314408BE890E08EDA832DD3DB23C110DC8EE8A9
S113145090E071DA80E0CCDB0ADC21100EC069E98F
S113146070E080E090E054DA6BE970E088E090E0AE
S11314704FDA82E0BDDBFBDB10C06BE970E088E093
S113148090E046DA82E0B4DBF2DBF1E02F1205C033
S113149069E970E080E090E03BDA68EA70E088E0B7
S11314A090E036DA83E0A4DBE2DBF3C08091CB008A
S11314B04AE0BE016F5F7F4F90E032D28091CA0054
S11314C04AE0BE016C5F7F4F90E02AD280916800B1
S11314D04AE0BE01695F7F4F90E022D28091CB0049
S11314E08A3048F4F70191828082BE016F5F7F4F9A
S11314F0C70104D205C0BE016F5F7F4FC70109D287
S1131500F70101900020E9F73197B182A082809120
S1131510CA008A3038F4F70101900020E9F73197C6
S113152091828082BE016C5F7F4FC701E7D1F701D2
S113153001900020E9F73197B182A0828091680080
S11315408A3038F4F70101900020E9F7319791824D
S11315508082BE01695F7F4FC701D0D188DB85EBF4
S113156090E0E9D980E044DB82DBC701E4D984E080
S11315703FDB7DDB8091C90090E001979C01220F45
S1131580331F820F931F880F991F880F991F880F8D
S1131590991F67E770E0C896BBD985E029DB79C05D
S11315A066DB8BEA90E0C7D980E022DB8091CF0034
S11315B04AE0BE016F5F7F4F90E0B2D18091CE00D0
S11315C04AE0BE016C5F7F4F90E0AAD18091CD00CC
S11315D04AE0BE01695F7F4F90E0A2D18091CF00C5
S11315E08A3048F4F70191828082BE016F5F7F4F99
S11315F0C70184D105C0BE016F5F7F4FC70189D188
S1131600F70101900020E9F73197B182A08280911F
S1131610CE008A3038F4F70101900020E9F73197C1
S113162091828082BE016C5F7F4FC70167D1F70151
S113163001900020E9F73197B182A0828091CD001A
S11316408A3038F4F70101900020E9F7319791824C
S11316508082BE01695F7F4FC70150D108DBC7019B
S11316606AD984E0C5DA03DB8091C90090E0019770
S11316709C01220F331F820F931F880F991F880F1D
S1131680991F880F991F67E770E0C89641D985E0D4
S1131690AFDA87E99AE30197F1F700C00000652CFF
S11316A0772D402FA12F3FCC0F931F93CF93DF9320
S11316B08230910510F482E090E0E0916201F091B3
S11316C0630120E030E0A0E0B0E0309719F1408100
S11316D051810281138148175907C8F0841795076F
S11316E069F4109731F012960C93129713961C9389
S11316F027C0009362011093630122C021153105B4
S113170019F04217530718F49A01BD01EF01DF01E4
S1131710F801DBCF21153105F9F0281B390B2430F2
S1131720310580F48A819B816115710521F0FB01EB
S11317309383828304C09093630180936201FE01CA
S1131740329644C0FE01E20FF31F8193919322501D
S11317503109398328833AC02091600130916101B5
S1131760232B41F420916200309163003093610196
S113177020936001209160003091610021153105B2
S113178041F42DB73EB74091640050916500241B8D
S1131790350BE0916001F0916101E217F307A0F4C9
S11317A02E1B3F0B2817390778F0AC014E5F5F4FB3
S11317B02417350748F04E0F5F1F50936101409383
S11317C060018193919302C0E0E0F0E0CF01DF91EA
S11317D0CF911F910F910895CF93DF93009709F450
S11317E081C0FC01329713821282A0916201B091F0
S11317F06301109781F420813181820F931F20911E
S11318006001309161012817390751F5F0936101A6
S1131810E093600167C0ED0120E030E0CE17DF0700
S113182040F44A815B819E0141155105F1F0EA01C2
S1131830F5CFD383C28340815181840F951FC8178C
S1131840D90759F488819981840F951F0296918351
S113185080838A819B81938382832115310529F4B6
S1131860F0936301E09362013DC0E901FB83EA83E5
S113187049915991C40FD51FEC17FD0761F480817C
S11318809181840F951F0296E9019983888382814F
S113189093819B838A83E0E0F0E012968D919C9182
S11318A01397009719F0FD01DC01F7CF8D919C91FE
S11318B011979D012E5F3F4F820F931F209160016E
S11318C0309161012817390769F4309729F410928F
S11318D063011092620102C013821282B09361010B
S11318E0A0936001DF91CF910895FB01DC0102C058
S11318F001900D9241505040D8F70895FB01DC014E
S11319000D900020E9F7119701900D920020E1F766
S11319100895FB01DC0101900D920020E1F7089588
S1131920BB274A3031F4992322F4BDE29095819586
S11319309F4F01C0BB27FB015527AA27880F991F7A
S1131940AA1FA41710F0A41B83955051B9F7A05DEA
S1131950AA3308F0A95DA193009779F7B111B19367
S11319601192CB0100C0DC01FC01672F7191772338
S1131970E1F7329704C07C916D9370836291AE1746
S10D1980BF07C8F30895F894FFCFE1
S113198A0000640120003E010A2D2D2D2D2D2D2D40
S113199A2D2D2D2D2D2D2D2D2D00F7F800D7C0D14D
S11319AADB00FBFC00F9FAD7C3D300FDFE00CDC06F
S11319BAD1D2D0CEC9CAC83A003E00312E20C1D3F2
S11319CAC4C8CBDCCDC8CA00322E20D3D1D220C29F
S11319DAD0C5CCDF00D3D1D220C1D3C4C8CBDCCD8F
S10719EAC8CA000063
S9030000FC
