S01300005457492D616B612D4932432E73726563D8
S113000031C44BC44AC449C448C447C4BBC645C42C
S113001044C430C742C441C440C43FC43EC43DC4C8
S11300203CC43CC63AC400000000000000000000CC
S113003000000000000000000000000000000000BC
S113004000000000000000000000000000000000AC
S1130050000000000000000000000000000000009C
S1130060000000000000000000000000000000008C
S1130070000000000000000000000000000000007C
S1130080000000000000000000000000000000006C
S1130090000000000000000000000000000000005C
S11300A0000000000000000000000000000000004C
S11300B0000000000000000000000000000000003C
S11300C0000000000000000000000000000000002C
S11300D0000000000000000000000000000000001C
S11300E0000000000000000000000000000000000C
S11300F000000000000000000000000000000000FC
S113010000000000000000000000000000000000EB
S113011000000000000000000000000000000000DB
S113012000000000000000000000000000000000CB
S113013000000000000000000000000000000000BB
S113014000000000000000000000000000000000AB
S1130150000000000000000000000000000000009B
S1130160000000000000000000000000000000008B
S1130170000000000000000000000000000000007B
S1130180000000000000000000000000000000006B
S1130190080808080000006060000000000000007B
S11301A0000000000000003E615149453E0000404F
S11301B0427F404000000062514949494600002204
S11301C0414149493600001814127F1010000027DD
S11301D0494949493100003E494949493200000131
S11301E001710905030000364949494936000026D2
S11301F0494949493E0000000066660000000000CD
S113020000000000000000000000000000000000EA
S1130210000000000000000000412214080000005B
S113022000000000000000000000000000000000CA
S113023000000000000000000000000000000000BA
S113024000000000000000000000000000000000AA
S1130250000000000000000000000000000000009A
S1130620000000000000007E090909097E00007F27
S1130630494949493100007F494949497600007FC9
S113064001010101010000603826213F6000007FA4
S11306504949494949000077087F0877000000228A
S1130660414141493600007F201008047F00007F8B
S1130670201109047F00007F080814630000007C37
S1130680020101017F00007F0204027F0000007F5D
S1130690080808087F00003E414141413E00007FB8
S11306A0010101017F00007F090909090600003EDC
S11306B04141414122000001017F01010000002766
S11306C0484848483F00001C227F221C0000006369
S11306D0140814630000001F2020203F6000000F56
S11306E0101010107F00007F407F407F0000003F0B
S11306F0203F203F600000017F4444443800007FD5
S1130700444438007F00007F4444444438000022BD
S1130710414149493E00007F083E41413E000046B8
S1130720291111117F0000000000000000000000EA
S113073000000000000000000000000000000000B5
S113074000000000000000000000000000000000A5
S11307500000000000000000000000000000000095
S11307600000000000000000000000000000000085
S11307700000000000000000000000000000000075
S11307800000000000000000000000000000000065
S11307900000000000000000000000000000000055
S11307A00000000000000000000000000000000045
S11307B00000000000000000000000000000000035
S11307C00000000000000000000000000000000025
S11307D00000000000000000000000000000E0F83D
S11307E0FC3E0E0763733F1F0F0682C0F0E0071F35
S11307F03F3E1C8CC6E2F1F8FC7E7F3F1F070000E1
S113080000000000000000000000000000000000E4
S113081000000000000000000000000000000000D4
S113082000000000000004000400040000050400AF
S11308300500070008060706040004000005040874
S11308400600040004000400000504000500070875
S11308500607050007000708060700050408060048
S11308600400040011241FBECFE5D4E0DEBFCDBFD9
S113087010E0A0E6B0E0ECE7F9E102C005900D92CB
S1130880A43CB107D9F721E0A4ECB0E001C01D926B
S1130890A636B207E1F705D36FC8B2CB28E0829F32
S11308A0C00111248A5D9F4FA2EDB0E04AED50E0F3
S11308B0FC01259134912D930196A417B507C1F736
S11308C082ED90E00895CF92DF92EF92FF920F9322
S11308D01F93CF93DF93C82ED92E862FDFDF8C0191
S11308E07C0188E0E80EF11CCC2DDD2DF80161912E
S11308F08F01CE01CED121960E151F05B9F7DF91D8
S1130900CF911F910F91FF90EF90DF90CF900895BA
S11309100F931F93CF93DF93EB016991662331F01B
S11309208C01085F1F4FCFDFC801F7CFDF91CF9154
S11309301F910F910895FC0101900020E9F7319770
S1130940E81BF90BEE0FFF1FEE0FFF1FEE0FFF1F4B
S1130950F695E795BC0180E490E08E1B9F0BD8DFF1
S11309600895FC0101900020E9F731979C012E1BAA
S11309703F0B220F331F220F331F220F331FBC01E3
S1130980C90180589F4FC4DF089586E180B986B7B6
S1130990856A86BF089586B7856986BF0895CF9313
S11309A0C82F82E090E09093E1008093E000909360
S11309B0DB008093DA0071D69093DD008093DC0035
S11309C0FC011082C18388E790E09093DF0080935C
S11309D0DE00DBDFCF910895CF92DF92EF92FF929A
S11309E00F931F93CF93DF937C016B01EB0121964F
S11309F0CE0153D68C0180E4F8018083C114D10464
S1130A0059F0F701D8011196B7016C0D7D1D919134
S1130A109D93E617F707D9F7D093E100C093E00060
S1130A20D093DB00C093DA00CE0137D69093DD007B
S1130A308093DC00AE01B80151D788E790E0909331
S1130A40DF008093DE00C801C0D69FDFDF91CF9125
S1130A501F910F91FF90EF90DF90CF9008958EEA51
S1130A609EDF8BED95E00197F1F700C0000085ED66
S1130A7096DF8BED95E00197F1F700C0000080E868
S1130A808EDF8BED95E00197F1F700C0000088EA56
S1130A9086DF8BED95E00197F1F700C000008FE34E
S1130AA07EDF8BED95E00197F1F700C0000083ED48
S1130AB076DF8BED95E00197F1F700C0000080E050
S1130AC06EDF8BED95E00197F1F700C0000080E444
S1130AD066DF8BED95E00197F1F700C000008DE82B
S1130AE05EDF8BED95E00197F1F700C0000084E133
S1130AF056DF8BED95E00197F1F700C0000080E22E
S1130B004EDF8BED95E00197F1F700C0000080E027
S1130B1046DF8BED95E00197F1F700C0000081EA14
S1130B203EDF8BED95E00197F1F700C0000088EC03
S1130B3036DF8BED95E00197F1F700C000008AEDF8
S1130B402EDF8BED95E00197F1F700C0000082E104
S1130B5026DF8BED95E00197F1F700C0000081E8F6
S1130B601EDF8BED95E00197F1F700C000008FECDC
S1130B7016DF8BED95E00197F1F700C0000089EDD9
S1130B800EDF8BED95E00197F1F700C0000081EFD7
S1130B9006DF8BED95E00197F1F700C000008BEDC7
S1130BA0FEDE8BED95E00197F1F700C0000080E4D4
S1130BB0F6DE8BED95E00197F1F700C0000084EAC2
S1130BC0EEDE8BED95E00197F1F700C0000086EAB8
S1130BD0E6DE8BED95E00197F1F700C000008FEAA7
S1130BE0DEDE8BED95E00197F1F700C0000008957B
S1130BF0CF93C82F81E2D3DE81EC91E00197F1F726
S1130C0000C0000080E0CBDE81EC91E00197F1F7B9
S1130C1000C000008FE7C3DE81EC91E00197F1F79B
S1130C2000C0000082E2BBDE81EC91E00197F1F7A5
S1130C3000C000008C2FB3DE81EC91E00197F1F746
S1130C4000C000008C2FABDE81EC91E00197F1F73E
S1130C5000C0000060E870E082EE90E0BDDE83EE4C
S1130C6097E50197F1F700C00000CF91089580E85F
S1130C70E2EEF0E0DF011D928A95E9F70895CF9343
S1130C80F6DFC0E08C2FB4DFCF5FC830D9F7CF9147
S1130C9008958E519F4FFC01608308951F920F9217
S1130CA00FB60F9211242F933F934F935F936F933B
S1130CB07F938F939F93AF93BF93EF93FF9381B1F0
S1130CC0883181F018F4883039F04BC0803209F44F
S1130CD041C08832E1F045C08091DE0083B985E8E7
S1130CE086BF3FC0E091E000F091E1008091DA001E
S1130CF09091DB00E81BF90B8091DC009091DD0002
S1130D00E80FF91F808183B985E886BF2AC08091E6
S1130D10DA009091DB0001979093DB008093DA0076
S1130D20009789F0E091E000F091E100E81BF90BF5
S1130D308091DC009091DD00E80FF91F808183B978
S1130D4085E886BF0EC027DE8091DC009091DD002F
S1130D503CD507C020DEC29A8091DC009091DD0072
S1130D6034D5FF91EF91BF91AF919F918F917F9176
S1130D706F915F914F913F912F910F900FBE0F9004
S1130D801F9018951F920F920FB60F9211242F9354
S1130D903F938F939F9378948091CF008F5F8C3390
S1130DA018F48093CF0007C01092CF008091D00038
S1130DB08F5F8093D0008091D0008C3338F01092F4
S1130DC0D0008091D1008F5F8093D1008091D100B9
S1130DD0883130F01092D1001092D0001092CF00E0
S1130DE08091CA00882359F19091D1008091CD005F
S1130DF0981334C09091D0008091CC00981308C00F
S1130E009091CF008091CB00981302C01092C7003C
S1130E109091D0008091CC00981788F03091CF0049
S1130E202091CB00321710F4891748F48091C70041
S1130E30811105C08091C8008F5F8093C8008091A4
S1130E40C8008A3070F01092C8001092CA0013BE15
S1130E501092C5001092C400C19803C0981778F38B
S1130E60D7CF9F918F913F912F910F900FBE0F90ED
S1130E701F9018951F920F920FB60F9211248F9303
S1130E809F9378948091C600809582BF98B382E046
S1130E90892788BB9F918F910F900FBE0F901F9051
S1130EA01895CF93DF93CDB7DEB762970FB6F8945A
S1130EB0DEBF0FBECDBFF89485B38F6085BB789439
S1130EC08EB588608EBD89B7806189BF8EB5856017
S1130ED08EBD82EE96E19BBD8ABD89B7816089BFD4
S1130EE0BEDD87E99AE30197F1F700C00000C7DE91
S1130EF0E7E9FAE33197F1F700C00000212C612CF7
S1130F0070E040E0A0E0332433947E01FAE0EF0E79
S1130F10F11C0F2EFAE3AF2EB12CF02D0F2EF0E3BF
S1130F208F2E912CF02D8091CA008823D1F19091BD
S1130F30D1008091CD009817A0F19091D0008091BC
S1130F40CC00981770F13091CF002091CB0032176C
S1130F5010F4891730F58091C700811122C0E09107
S1130F60C500F0E0EA5DF74F859194918093C40049
S1130F70811102C013BE03C083B7856083BF809113
S1130F80C400813011F08093C6008091C50091E0C7
S1130F90980F9093C50090916600891710F01092F5
S1130FA0C50023B303B30095047093B373B2872DC4
S1130FB080958870782E83B313B31095127043B262
S1130FC033B3532C632F617030FD512C9A9972C046
S1130FD050E030E02095309524703327421B530BAA
S1130FE09A0122F422273327241B350B222309F4E8
S1130FF061C02091CE00223061F0233099F121307C
S113100009F058C0211003C06894222421F82A94BE
S113101051C02091C900213079F018F02230B9F084
S113102049C02091CD002F5F283118F42093CD00C2
S113103041C01092CD003EC02091CC002F5F2C33D4
S113104018F42093CC0036C01092CC0033C0209109
S1131050CB002F5F2C3318F42093CB002BC01092BD
S1131060CB0028C02091C900213079F018F022303B
S1131070B9F020C02091D1002F5F283118F42093BB
S1131080D10018C01092D10015C02091D0002F5F5C
S11310902C3318F42093D0000DC01092D0000AC055
S11310A02091CF002F5F2C3318F42093CF0002C07F
S11310B01092CF009B997FC0272F30E0492F50E03A
S11310C04095509548705527241B350BA90122F4EF
S11310D044275527421B530B442309F46CC09091B9
S11310E0CE00923059F09330C1F1913009F063C0D1
S11310F02394921508F05FC0212C5DC09091C90023
S1131100913089F018F09230D9F055C09091CD000B
S1131110911103C0E8E1E093CD009091CD0091508E
S11311209093CD0048C09091CC00911103C0FCE392
S1131130F093CC009091CC0091509093CC003BC0A4
S11311409091CB00911103C09CE39093CB009091BC
S1131150CB0091509093CB002EC09091C900913058
S113116089F018F09230D9F026C09091D1009111F5
S113117003C0E8E1E093D1009091D10091509093A5
S1131180D10019C09091D000911103C0FCE3F093F9
S1131190D0009091D00091509093D0000CC09091C9
S11311A0CF00911103C09CE39093CF009091CF00A6
S11311B091509093CF0099991CC0B0E090E0809535
S11311C0909582709927A81BB90BCD0122F488272A
S11311D099278A1B9B0B882361F0662351F0809129
S11311E0CE00882319F01092CE0002C03092CE00B7
S11311F046DD989991C0862D90E0432440FACC2492
S1131200C0F8D12C8C199D099C0122F42227332784
S1131210281B390B222309F47FC08091CE00823031
S1131220C1F0833009F446C0813009F04FC0222058
S113123021F0E1E02E1641F06FC01092C90082E067
S11312408093CE001CDD68C083E08093CE0017DD60
S113125063C0112339F01092CA001092C9000FDD47
S11312601092CE008091C9008F5F833018F4809370
S1131270C90052C01092C9003092CA009091CD00AA
S11312808091D100891710F03092C7009091CC0062
S11312908091D000891710F03092C7009091CB0054
S11312A08091CF00891710F03092C700E8DC1092CB
S11312B0CE0045C08091C9008F5F8093C900833000
S11312C078F111112DC01092C9002AC08091CA0072
S11312D0882311F19091D1008091CD009817E0F00E
S11312E09091D0008091CC009817B0F03091CF004D
S11312F02091CB00321710F4891770F48091C70045
S113130081110AC01092C8001092CA0013BE109234
S1131310C5001092C400A9988091CE00833011F4C6
S11313201DBC1CBC8091CE00813009F488C038F00B
S1131330823009F4B4C0833009F42BC1A3C1809175
S1131340D1004AE0BE016F5F7F4F90E0E2D280910E
S1131350D0004AE0BE016C5F7F4F90E0DAD280910A
S1131360CF004AE0BE01695F7F4F90E0D2D2809106
S1131370D1008A3048F4F70191828082BE016F5F08
S11313807F4FC701B4D205C0BE016F5F7F4FC70155
S1131390B9D2F70101900020E9F73197B182A08218
S11313A08091D0008A3038F4F70101900020E9F7E9
S11313B0319791828082BE016C5F7F4FC70197D2C3
S11313C0F70101900020E9F73197B182A082809162
S11313D0CF008A3038F4F70101900020E9F7319703
S11313E091828082BE01695F7F4FC70180D23FDC5A
S11313F0C701A1DA84E0FCDB3ADC87E690E09BDA03
S113140082E0F6DB86E0F4DB32DC68E770E082E061
S113141090E07EDA8BE790E08EDA80E0E9DB27DC8F
S113142060E870E082E090E073DA8091CA0088237B
S113143019F086E890E095DA832DDADB23C117DC16
S11314408FE890E078DA80E0D3DB11DC21100EC065
S11314506AE970E080E090E05BDA6CE970E088E0D3
S113146090E056DA82E0C4DB02DC10C06CE970E084
S113147088E090E04DDA82E0BBDBF9DBF1E02F128B
S113148005C06AE970E080E090E042DA69EA70E061
S113149088E090E03DDA83E0ABDBE9DBF3C08091E8
S11314A0CD004AE0BE016F5F7F4F90E032D2809161
S11314B0CC004AE0BE016C5F7F4F90E02AD280915D
S11314C0CB004AE0BE01695F7F4F90E022D2809159
S11314D0CD008A3048F4F70191828082BE016F5FAB
S11314E07F4FC70104D205C0BE016F5F7F4FC701A4
S11314F009D2F70101900020E9F73197B182A08267
S11315008091CC008A3038F4F70101900020E9F78B
S1131510319791828082BE016C5F7F4FC701E7D112
S1131520F70101900020E9F73197B182A082809100
S1131530CB008A3038F4F70101900020E9F73197A5
S113154091828082BE01695F7F4FC701D0D18FDB5A
S113155086EB90E0F0D980E04BDB89DBC701EBD967
S113156084E046DB84DB8091C90090E001979C0114
S1131570220F331F820F931F880F991F880F991F03
S1131580880F991F65E770E0C896C2D985E030DB03
S113159079C06DDB8CEA90E0CED980E029DB8091C4
S11315A0D1004AE0BE016F5F7F4F90E0B2D18091DD
S11315B0D0004AE0BE016C5F7F4F90E0AAD18091D9
S11315C0CF004AE0BE01695F7F4F90E0A2D18091D5
S11315D0D1008A3048F4F70191828082BE016F5FA6
S11315E07F4FC70184D105C0BE016F5F7F4FC70124
S11315F089D1F70101900020E9F73197B182A082E7
S11316008091D0008A3038F4F70101900020E9F786
S1131610319791828082BE016C5F7F4FC70167D191
S1131620F70101900020E9F73197B182A0828091FF
S1131630CF008A3038F4F70101900020E9F73197A0
S113164091828082BE01695F7F4FC70150D10FDB59
S1131650C70171D984E0CCDA0ADB8091C90090E03B
S113166001979C01220F331F820F931F880F991F2C
S1131670880F991F880F991F65E770E0C89648D9AD
S113168085E0B6DA87E99AE30197F1F700C0000034
S1131690652C772D402FA12F46CC0F931F93CF930A
S11316A0DF938230910510F482E090E0E0916401D0
S11316B0F091650120E030E0A0E0B0E0309719F14E
S11316C0408151810281138148175907C8F084175A
S11316D0950769F4109731F012960C9312971396AC
S11316E01C9327C0009364011093650122C0211547
S11316F0310519F04217530718F49A01BD01EF019F
S1131700DF01F801DBCF21153105F9F0281B390B76
S11317102430310580F48A819B816115710521F0A3
S1131720FB019383828304C09093650180936401D9
S1131730FE01329644C0FE01E20FF31F81939193A0
S113174022503109398328833AC0209162013091B3
S11317506301232B41F420916200309163003093A4
S11317606301209362012091600030916100211592
S1131770310541F42DB73EB74091640050916500A6
S1131780241B350BE0916201F0916301E217F3072A
S1131790A0F42E1B3F0B2817390778F0AC014E5FDD
S11317A05F4F2417350748F04E0F5F1F50936301B6
S11317B0409362018193919302C0E0E0F0E0CF0195
S11317C0DF91CF911F910F910895CF93DF930097ED
S11317D009F481C0FC01329713821282A091640142
S11317E0B0916501109781F420813181820F931F9C
S11317F020916201309163012817390751F5F09364
S11318006301E093620167C0ED0120E030E0CE1790
S1131810DF0740F44A815B819E0141155105F1F0D7
S1131820EA01F5CFD383C28340815181840F951F90
S1131830C817D90759F488819981840F951F029696
S1131840918380838A819B819383828321153105CF
S113185029F4F0936501E09364013DC0E901FB8341
S1131860EA8349915991C40FD51FEC17FD0761F420
S113187080819181840F951F0296E9019983888361
S1131880828193819B838A83E0E0F0E012968D91BC
S11318909C911397009719F0FD01DC01F7CF8D910E
S11318A09C9111979D012E5F3F4F820F931F2091B2
S11318B06201309163012817390769F4309729F4DC
S11318C0109265011092640102C013821282B093D7
S11318D06301A0936201DF91CF910895FB01DC01C4
S11318E002C001900D9241505040D8F70895FB0179
S11318F0DC010D900020E9F7119701900D92002072
S1131900E1F70895FB01DC0101900D920020E1F75D
S11319100895BB274A3031F4992322F4BDE290950F
S113192081959F4F01C0BB27FB015527AA27880F2C
S1131930991FAA1FA41710F0A41B83955051B9F73F
S1131940A05DAA3308F0A95DA193009779F7B111BE
S1131950B1931192CB0100C0DC01FC01672F71919E
S11319607723E1F7329704C07C916D937083629181
S10F1970AE17BF07C8F30895F894FFCF2A
S113197C0000660120003E2D2D2D2D2D2D2D2D2DFD
S113198C2D2D2D2D2D2D2D00F7F800D7C0D1DB00DA
S113199CF9FAD7C3D300C1D3C43A20C2CACB00CD01
S11319ACC0D1D2D0CEC9CAC83A003E00312E20C113
S11319BCD3C4C8CBDCCDC8CA00322E20D3D1D2209C
S11319CCC2D0C5CCDF00D3D1D220C1D3C4C8CBDCA8
S10719DCCDC8CA00A4
S9030000FC
