S01300005457492D616B612D4932432E73726563D8
S113000012C42CC42BC42AC429C428C427C426C49B
S113001025C424C423C422C421C420C41FC41EC4B0
S11300201DC420C51BC40000000000000000000027
S113003000000000000000000000000000000000BC
S113004000000000000000000000000000000000AC
S1130050000000000000000000000000000000009C
S1130060000000000000000000000000000000008C
S1130070000000000000000000000000000000007C
S1130080000000000000000000000000000000006C
S1130090000000000000000000000000000000005C
S11300A0000000000000000000000000000000004C
S11300B0000000000000000000000000000000003C
S11300C0000000000000000000000000000000002C
S11300D0000000000000000000000000000000001C
S11300E0000000000000000000000000000000000C
S11300F000000000000000000000000000000000FC
S113010000000000000000000000000000000000EB
S113011000000000000000000000000000000000DB
S113012000000000000000000000000000000000CB
S113013000000000000000000000000000000000BB
S113014000000000000000000000000000000000AB
S1130150000000000000000000000000000000009B
S1130160000000000000000000000000000000008B
S1130170000000000000000000000000000000007B
S1130180000000000000000000000000000000006B
S1130190000000000000000000000000000000005B
S11301A0000000000000007EA19189857E0000808F
S11301B082FF8080000000E29191898986000042DC
S11301C081818989760000382422FF20200000479D
S11301D0898989897100007E919191916200000161
S11301E001E1110907000076898989897600004EAA
S11301F0919191917E00000000666600000000006D
S113020000000000000000000000000000000000EA
S113021000000000000000000000000000000000DA
S113022000000000000000000000000000000000CA
S113023000000000000000000000000000000000BA
S113082000000000000011241FBECFE5D4E0DEBFAD
S1130830CDBF20E0A6E6B0E001C01D92AA3FB207FA
S1130840E1F710E0A0E6B0E0EEEAF1E102C00590C5
S11308500D92A636B107D9F748D2A7C4D1CB28E068
S1130860829FC00111248A5D9F4FA6E6B0E04EE648
S113087050E0FC01259134912D930196A417B507FE
S1130880C1F786E690E00895CF92DF92EF92FF924F
S11308900F931F93CF93DF93C82ED92E862FDFDFBC
S11308A08C017C0188E0E80EF11CCC2DDD2DF801D3
S11308B061918F01CE01D1D021960E151F05B9F794
S11308C0DF91CF911F910F91FF90EF90DF90CF9028
S11308D008950F931F93CF93DF93EB0169916623E0
S11308E031F08C01085F1F4FCFDFC801F7CFDF91D4
S11308F0CF911F910F91089580E280B986B7856AE0
S113090086BF089586B7856986BF0895CF93C82F9B
S113091082E090E0909375008093740090936F0050
S113092080936E00C9D29093710080937000FC0193
S11309301082C18388E790E09093730080937200E3
S1130940DBDFCF910895CF92DF92EF92FF920F9366
S11309501F93CF93DF937C016B01EB012196CE01B2
S1130960ABD28C0180E4F8018083C114D10459F026
S1130970F701D8011196B7016C0D7D1D91919D93DE
S1130980E617F707D9F7D0937500C0937400D09396
S11309906F00C0936E00CE018FD29093710080934C
S11309A07000AE01B801A9D388E790E0909373007A
S11309B080937200C80118D39FDFDF91CF911F91FC
S11309C00F91FF90EF90DF90CF900895CF93C82FB1
S11309D081E29CDF87E592E00197F1F700C0000017
S11309E080E094DF87E592E00197F1F700C0000012
S11309F08FE78CDF87E592E00197F1F700C00000F4
S1130A0082E284DF87E592E00197F1F700C00000FD
S1130A108C2F7CDF87E592E00197F1F700C000009E
S1130A208C2F74DF87E592E00197F1F700C0000096
S1130A3060E870E086E790E086DF8FE295E7019753
S1130A40F1F700C00000CF91089580E8E6E7F0E0F8
S1130A50DF011D928A95E9F708958A589F4FFC019A
S1130A60608308951F920F920FB60F9211242F9353
S1130A703F934F935F936F937F938F939F93AF9322
S1130A80BF93EF93FF9381B1883181F018F48830DC
S1130A9039F051C0803209F447C08832E1F04BC0CC
S1130AA08091720083B985E886BF45C0E0917400E7
S1130AB0F091750080916E0090916F00E81BF90B26
S1130AC08091700090917100E80FF91F808183B9C3
S1130AD085E886BF30C080916E0090916F000197C9
S1130AE090936F0080936E00892BB1F0C098E091D1
S1130AF07400F091750080916E0090916F00E81B76
S1130B00F90B8091700090917100E80FF91F8081BA
S1130B1083B985E886BF0FC0F5DEC09A8091700066
S1130B209091710061D207C0EDDEC19A809170008E
S1130B309091710059D2FF91EF91BF91AF919F9124
S1130B408F917F916F915F914F913F912F910F9072
S1130B500FBE0F901F9018958EEAD8DE8FEC97E0A9
S1130B600197F1F700C0000085EDD0DE8FEC97E02F
S1130B700197F1F700C0000080E8C8DE8FEC97E031
S1130B800197F1F700C0000088EAC0DE8FEC97E01F
S1130B900197F1F700C000008FE3B8DE8FEC97E017
S1130BA00197F1F700C0000083EDB0DE8FEC97E011
S1130BB00197F1F700C0000080E0A8DE8FEC97E019
S1130BC00197F1F700C0000080E4A0DE8FEC97E00D
S1130BD00197F1F700C000008DE898DE8FEC97E0F4
S1130BE00197F1F700C0000084E190DE8FEC97E0FC
S1130BF00197F1F700C0000080E288DE8FEC97E0F7
S1130C000197F1F700C0000080E080DE8FEC97E0F0
S1130C100197F1F700C0000081EA78DE8FEC97E0DD
S1130C200197F1F700C0000088EC70DE8FEC97E0CC
S1130C300197F1F700C000008AED68DE8FEC97E0C1
S1130C400197F1F700C0000082E160DE8FEC97E0CD
S1130C500197F1F700C0000081E858DE8FEC97E0BF
S1130C600197F1F700C000008FEC50DE8FEC97E0A5
S1130C700197F1F700C0000089ED48DE8FEC97E0A2
S1130C800197F1F700C0000081EF40DE8FEC97E0A0
S1130C900197F1F700C000008BED38DE8FEC97E090
S1130CA00197F1F700C0000080E430DE8FEC97E09C
S1130CB00197F1F700C0000084EA28DE8FEC97E08A
S1130CC00197F1F700C0000086EA20DE8FEC97E080
S1130CD00197F1F700C000008FEA18DE8FEC97E06F
S1130CE00197F1F700C000000895CF93DF93CDB7CB
S1130CF0DEB7A8970FB6F894DEBF0FBECDBF87B39B
S1130D00836087BB789428DF8FE19EE40197F1F735
S1130D1000C000009ADE80E059DE0F2EF2E37F2E41
S1130D20F02D0F2EFBE36F2EF02D0F2EF9E05F2E2A
S1130D30F02D8E01065F1F4F0F2EF0E38F2E912CA6
S1130D40F02D0F2EFAE3CF2ED12CF02D6894AA2487
S1130D50A6F8B12C7E0199E1E90EF11C4AE050E0BD
S1130D60BE016F5F7F4F852D90E0E2D14AE050E0F5
S1130D70BE016C5F7F4F862D90E0DAD14AE050E0EF
S1130D80BE01695F7F4F872D90E0D2D1E9E0E51580
S1130D9048F0F80191828082BE016F5F7F4FC801E5
S1130DA0B5D105C0BE016F5F7F4FC801BAD1F8014C
S1130DB001900020E9F73197D182C082F9E0F6155D
S1130DC038F0F80101900020E9F731979182808290
S1130DD0BE016C5F7F4FC80199D1F80101900020DA
S1130DE0E9F73197D182C08289E0871538F0F8019C
S1130DF001900020E9F7319791828082BE01695FFA
S1130E007F4FC80183D121DEF80101900020E9F76A
S1130E103197E01BF10BEE0FFF1FEE0FFF1FEE0FDC
S1130E20FF1FF695E795B801C5018E1B9F0B51DD99
S1130E3084E0CCDD73949BE3971510F46394712CD8
S1130E40EBE3E61510F45394612CF7E1F51518F46F
S1130E50712C612C512CF9DDF70101900020E9F788
S1130E60CF0141978E159F0509F4198EF701019062
S1130E700020E9F73197D182C082F7010190002068
S1130E80E9F73197EE19FF09EE0FFF1FEE0FFF1F71
S1130E90EE0FFF1FF695E795B701C5018E1B9F0B5B
S1130EA018DD82E093DD86E091DD8FE19EE4019719
S1130EB0F1F700C0000052CF0F931F93CF93DF933D
S1130EC08230910510F482E090E0E091F800F09116
S1130ED0F90020E030E0A0E0B0E0309719F1408163
S1130EE051810281138148175907C8F08417950767
S1130EF069F4109731F012960C93129713961C9381
S1130F0027C00093F8001093F90022C02115310581
S1130F1019F04217530718F49A01BD01EF01DF01DC
S1130F20F801DBCF21153105F9F0281B390B2430EA
S1130F30310580F48A819B816115710521F0FB01E3
S1130F409383828304C09093F9008093F800FE0198
S1130F50329644C0FE01E20FF31F81939193225015
S1130F603109398328833AC02091F6003091F70083
S1130F70232B41F420916200309163003093F700F9
S1130F802093F60020916000309161002115310515
S1130F9041F42DB73EB74091640050916500241B85
S1130FA0350BE091F600F091F700E217F307A0F497
S1130FB02E1B3F0B2817390778F0AC014E5F5F4FAB
S1130FC02417350748F04E0F5F1F5093F7004093E6
S1130FD0F6008193919302C0E0E0F0E0CF01DF914D
S1130FE0CF911F910F910895CF93DF93009709F448
S1130FF081C0FC01329713821282A091F800B09153
S1131000F900109781F420813181820F931F209180
S1131010F6003091F7002817390751F5F093F700DF
S1131020E093F60067C0ED0120E030E0CE17DF0763
S113103040F44A815B819E0141155105F1F0EA01BA
S1131040F5CFD383C28340815181840F951FC81784
S1131050D90759F488819981840F951F0296918349
S113106080838A819B81938382832115310529F4AE
S1131070F093F900E093F8003DC0E901FB83EA83B3
S113108049915991C40FD51FEC17FD0761F4808174
S11310909181840F951F0296E90199838883828147
S11310A093819B838A83E0E0F0E012968D919C917A
S11310B01397009719F0FD01DC01F7CF8D919C91F6
S11310C011979D012E5F3F4F820F931F2091F600D1
S11310D03091F7002817390769F4309729F41092F2
S11310E0F9001092F80002C013821282B093F70044
S11310F0A093F600DF91CF910895FB01DC0102C0BB
S113110001900D9241505040D8F70895FB01DC0145
S11311100D900020E9F7119701900D920020E1F75E
S11311200895FB01DC0101900D920020E1F7089580
S11311304532510518F4423008F004C0FB01108216
S1131140CB010895BB274A3031F4992322F4BDE240
S1131150909581959F4F01C0BB27FB015527AA2776
S1131160880F991FAA1FA41710F0A41B8395505130
S1131170B9F7A05DAA3308F0A95DA193009779F7A8
S1131180B111B1931192CB0100C0DC01FC01672FB6
S113119071917723E1F7329704C07C916D9370834A
S11111A06291AE17BF07C8F30895F894FFCF0D
S10911AE0000FA0020001D
S9030000FC
