S01300005457492D616B612D4932432E73726563D8
S113000012C42CC42BC42AC429C428C48EC626C432
S113001025C424C423C422C421C420C41FC41EC4B0
S11300201DC409C61BC4000000000000000000003D
S113003000000000000000000000000000000000BC
S113004000000000000000000000000000000000AC
S1130050000000000000000000000000000000009C
S1130060000000000000000000000000000000008C
S1130070000000000000000000000000000000007C
S1130080000000000000000000000000000000006C
S1130090000000000000000000000000000000005C
S11300A0000000000000000000000000000000004C
S11300B0000000000000000000000000000000003C
S11300C0000000000000000000000000000000002C
S11300D0000000000000000000000000000000001C
S11300E0000000000000000000000000000000000C
S11300F000000000000000000000000000000000FC
S113010000000000000000000000000000000000EB
S113011000000000000000000000000000000000DB
S113012000000000000000000000000000000000CB
S113013000000000000000000000000000000000BB
S113014000000000000000000000000000000000AB
S1130150000000000000000000000000000000009B
S1130160000000000000000000000000000000008B
S1130170000000000000000000000000000000007B
S1130180000000000000000000000000000000006B
S1130190080808080000006060000000000000007B
S11301A0000000000000003E615149453E0000404F
S11301B0427F404000000062514949494600002204
S11301C0414149493600001814127F1010000027DD
S11301D0494949493100003E494949493200000131
S11301E001710905030000364949494936000026D2
S11301F0494949493E0000000066660000000000CD
S113020000000000000000000000000000000000EA
S1130210000000000000000000412214080000005B
S113022000000000000000000000000000000000CA
S113023000000000000000000000000000000000BA
S113024000000000000000000000000000000000AA
S1130250000000000000000000000000000000009A
S1130620000000000000007E090909097E00007F27
S1130630494949493100007F494949497600007FC9
S113064001010101010000603826213F6000007FA4
S11306504949494949000077087F0877000000228A
S1130660414141493600007F201008047F00007F8B
S1130670201109047F00007F080814630000007C37
S1130680020101017F00007F0204027F0000007F5D
S1130690080808087F00003E414141413E00007FB8
S11306A0010101017F00007F090909090600003EDC
S11306B04141414122000001017F01010000002766
S11306C0484848483F00001C227F221C0000006369
S11306D0140814630000001F2020203F6000000F56
S11306E0101010107F00007F407F407F0000003F0B
S11306F0203F203F600000017F4444443800007FD5
S1130700444438007F00007F4444444438000022BD
S1130710414149493E00007F083E41413E000046B8
S1130720291111117F0000000000000000000000EA
S113073000000000000000000000000000000000B5
S113074000000000000000000000000000000000A5
S11307500000000000000000000000000000000095
S11307600000000000000000000000000000000085
S11307700000000000000000000000000000000075
S11307800000000000000000000000000000000065
S11307900000000000000000000000000000000055
S11307A00000000000000000000000000000000045
S11307B00000000000000000000000000000000035
S11307C00000000000000000000000000000000025
S11307D00000000000000000000000000000E0F83D
S11307E0FC3E0E0763733F1F0F0682C0F0E0071F35
S11307F03F3E1C8CC6E2F1F8FC7E7F3F1F070000E1
S113080000000000000000000000000000000000E4
S113081000000000000000000000000000000000D4
S113082000000000000011241FBECFE5D4E0DEBFAD
S1130830CDBF10E0A0E6B0E0E6E4F3E102C005902D
S11308400D92A83BB107D9F721E0A8EBB0E001C0B5
S11308501D92A035B207E1F798D273C5D1CB28E039
S1130860829FC00111248A5D9F4FACEBB0E044EC41
S113087050E0FC01259134912D930196A417B507FE
S1130880C1F78CEB90E00895CF92DF92EF92FF9244
S11308900F931F93CF93DF93C82ED92E862FDFDFBC
S11308A08C017C0188E0E80EF11CCC2DDD2DF801D3
S11308B061918F01CE01BAD121960E151F05B9F7AA
S11308C0DF91CF911F910F91FF90EF90DF90CF9028
S11308D008950F931F93CF93DF93EB0169916623E0
S11308E031F08C01085F1F4FCFDFC801F7CFDF91D4
S11308F0CF911F910F910895FC0101900020E9F719
S11309003197E81BF90BEE0FFF1FEE0FFF1FEE0FE1
S1130910FF1FF695E795BC0180E490E08E1B9F0BCA
S1130920D8DF089580E280B986B7856A86BF0895C6
S113093086B7856986BF0895CF93C82F82E090E07B
S11309409093CB008093CA009093C5008093C40019
S113095089D39093C7008093C600FC011082C183A1
S113096088E790E09093C9008093C800DBDFCF91C3
S11309700895CF92DF92EF92FF920F931F93CF933C
S1130980DF937C016B01EB012196CE016BD38C01CB
S113099080E4F8018083C114D10459F0F701D8012F
S11309A01196B7016C0D7D1D91919D93E617F70784
S11309B0D9F7D093CB00C093CA00D093C500C0939D
S11309C0C400CE014FD39093C7008093C600AE01FC
S11309D0B80169D488E790E09093C9008093C80077
S11309E0C801D8D39FDFDF91CF911F910F91FF9062
S11309F0EF90DF90CF9008958EEA9EDF8FEC97E022
S1130A000197F1F700C0000085ED96DF8FEC97E0C9
S1130A100197F1F700C0000080E88EDF8FEC97E0CB
S1130A200197F1F700C0000088EA86DF8FEC97E0B9
S1130A300197F1F700C000008FE37EDF8FEC97E0B1
S1130A400197F1F700C0000083ED76DF8FEC97E0AB
S1130A500197F1F700C0000080E06EDF8FEC97E0B3
S1130A600197F1F700C0000080E466DF8FEC97E0A7
S1130A700197F1F700C000008DE85EDF8FEC97E08E
S1130A800197F1F700C0000084E156DF8FEC97E096
S1130A900197F1F700C0000080E24EDF8FEC97E091
S1130AA00197F1F700C0000080E046DF8FEC97E08B
S1130AB00197F1F700C0000081EA3EDF8FEC97E078
S1130AC00197F1F700C0000088EC36DF8FEC97E067
S1130AD00197F1F700C000008AED2EDF8FEC97E05C
S1130AE00197F1F700C0000082E126DF8FEC97E068
S1130AF00197F1F700C0000081E81EDF8FEC97E05A
S1130B000197F1F700C000008FEC16DF8FEC97E03F
S1130B100197F1F700C0000089ED0EDF8FEC97E03C
S1130B200197F1F700C0000081EF06DF8FEC97E03A
S1130B300197F1F700C000008BEDFEDE8FEC97E02B
S1130B400197F1F700C0000080E4F6DE8FEC97E037
S1130B500197F1F700C0000084EAEEDE8FEC97E025
S1130B600197F1F700C0000086EAE6DE8FEC97E01B
S1130B700197F1F700C000008FEADEDE8FEC97E00A
S1130B800197F1F700C000000895CF93C82F81E2C8
S1130B90D3DE87E592E00197F1F700C0000080E022
S1130BA0CBDE87E592E00197F1F700C000008FE704
S1130BB0C3DE87E592E00197F1F700C0000082E20E
S1130BC0BBDE87E592E00197F1F700C000008C2FAF
S1130BD0B3DE87E592E00197F1F700C000008C2FA7
S1130BE0ABDE87E592E00197F1F700C0000060E812
S1130BF070E08CEC90E0BDDE8FE295E70197F1F7B1
S1130C0000C00000CF91089580E8ECECF0E0DF0133
S1130C101D928A95E9F70895CF93F6DFC0E08C2FF3
S1130C20B4DFCF5FC830D9F7CF91089584539F4F75
S1130C30FC01608308951F920F920FB60F92112446
S1130C402F933F934F935F936F937F938F939F93D0
S1130C50AF93BF93EF93FF9381B1883181F018F480
S1130C60883039F051C0803209F447C08832E1F04D
S1130C704BC08091C80083B985E886BF45C0E09128
S1130C80CA00F091CB008091C4009091C500E81B8C
S1130C90F90B8091C6009091C700E80FF91F80817D
S1130CA083B985E886BF30C08091C4009091C500A7
S1130CB001979093C5008093C400892BB1F0C0982C
S1130CC0E091CA00F091CB008091C4009091C500DE
S1130CD0E81BF90B8091C6009091C700E80FF91F3B
S1130CE0808183B985E886BF0FC022DEC09A8091D7
S1130CF0C6009091C7004ED207C01ADEC19A8091F7
S1130D00C6009091C70046D2FF91EF91BF91AF9179
S1130D109F918F917F916F915F914F913F912F910F
S1130D200F900FBE0F901F9018951F920F920FB641
S1130D300F9211248F938091B9008F5F8C3318F434
S1130D408093B90007C01092B9008091BA008F5FF8
S1130D508093BA008091BA008C3338F01092BA00B4
S1130D608091BB008F5F8093BB008091BB00883172
S1130D7030F01092BB001092BA001092B9008F911B
S1130D800F900FBE0F901F901895CF93DF93CDB7A0
S1130D90DEB768970FB6F894DEBF0FBECDBF87B33A
S1130DA08B6087BB789488B3806F88BB8EB588606E
S1130DB08EBD89B7806189BF84E89EE19BBD8ABDF1
S1130DC08EB585608EBD18DE8FE19EE40197F1F744
S1130DD000C00000E12C60E0A0E020E077247394E0
S1130DE06E019AE0C90ED11C0F2EFAE3AF2EB12C7E
S1130DF0F02D0F2EF0E38F2E912CF02DE6B306B3D9
S1130E000095007146B316B31095107286B3F6B20E
S1130E109F2D90959074F92E96B396B3B49917C0FC
S1130E20B0E0F0E0E095F095E071FF27AE1BBF0B5A
S1130E30FD0122F4EE27FF27EA1BFB0BEE2339F01A
S1130E40E11004C00F2EF3E0EF2EF02DEA94B599D3
S1130E5015C070E050E04095509540725527641BD2
S1130E60750BAB0122F444275527461B570B44232B
S1130E7029F0E394E2E0EE1508F4E12CB69917C0EA
S1130E8030E090E08095909580749927281B390B69
S1130E90C901992324F488279927821B930B88235B
S1130EA031F08091B80087258093B800B5DE86B311
S1130EB08091B800882321F0813009F47AC0C8C039
S1130EC08091BB004AE0BE016F5F7F4F90E006D285
S1130ED08091BA004AE0BE016C5F7F4F90E0FED182
S1130EE08091B9004AE0BE01695F7F4F90E0F6D17E
S1130EF08091BB008A3048F4F60191828082BE0161
S1130F006F5F7F4FC601D8D105C0BE016F5F7F4FB1
S1130F10C601DDD1F60101900020E9F73197B182D5
S1130F20A0828091BA008A3038F4F6010190002042
S1130F30E9F7319791828082BE016C5F7F4FC601D1
S1130F40BBD1F60101900020E9F73197B182A0826C
S1130F508091B9008A3038F4F60101900020E9F755
S1130F60319791828082BE01695F7F4FC601A4D10F
S1130F704BDEC601C1DC84E008DE46DE86E690E096
S1130F80BBDC82E002DE86E000DE3EDE67E770E086
S1130F9082E090E09EDC8AE790E0AEDC80E0F5DD64
S1130FA033DE6FE770E082E090E093DC872DEDDDC7
S1130FB04FC02ADE85E890E09FDC80E0E6DD24DE99
S1130FC0E11016C060E970E080E090E082DC62E944
S1130FD070E088E090E07DDC82E0D7DD15DE6FE92B
S1130FE070E088E090E075DC83E0CFDD0DDE29C0A1
S1130FF062E970E088E090E06CDC82E0C6DD04DE4B
S1131000F1E0EF120EC060E970E080E090E061DC96
S11310106FE970E088E090E05CDC83E0B6DDF4DD4D
S113102010C06FE970E088E090E053DC83E0ADDD50
S1131030EBDD82E0E81205C060E970E080E090E05A
S113104048DC6CEA70E088E090E043DC84E09DDDFD
S1131050EFE1FEE43197F1F700C000002F2DA02F3F
S1131060612FCCCE0F931F93CF93DF9382309105E2
S113107010F482E090E0E0914E01F0914F0120E005
S113108030E0A0E0B0E0309719F140815181028155
S1131090138148175907C8F08417950769F4109706
S11310A031F012960C93129713961C9327C0009359
S11310B04E0110934F0122C02115310519F042173A
S11310C0530718F49A01BD01EF01DF01F801DBCFEA
S11310D021153105F9F0281B390B2430310580F432
S11310E08A819B816115710521F0FB0193838283C1
S11310F004C090934F0180934E01FE01329644C088
S1131100FE01E20FF31F8193919322503109398339
S113111028833AC020914C0130914D01232B41F496
S1131120209162003091630030934D0120934C0173
S113113020916000309161002115310541F42DB7F3
S11311403EB74091640050916500241B350BE0913B
S11311504C01F0914D01E217F307A0F42E1B3F0B55
S11311602817390778F0AC014E5F5F4F2417350715
S113117048F04E0F5F1F50934D0140934C018193F3
S1131180919302C0E0E0F0E0CF01DF91CF911F9195
S11311900F910895CF93DF93009709F481C0FC0168
S11311A0329713821282A0914E01B0914F01109791
S11311B081F420813181820F931F20914C01309161
S11311C04D012817390751F5F0934D01E0934C0177
S11311D067C0ED0120E030E0CE17DF0740F44A811C
S11311E05B819E0141155105F1F0EA01F5CFD383EE
S11311F0C28340815181840F951FC817D90759F4C0
S113120088819981840F951F0296918380838A81B6
S11312109B81938382832115310529F4F0934F0137
S1131220E0934E013DC0E901FB83EA834991599162
S1131230C40FD51FEC17FD0761F480819181840FE1
S1131240951F0296E90199838883828193819B8308
S11312508A83E0E0F0E012968D919C9113970097B9
S113126019F0FD01DC01F7CF8D919C9111979D013F
S11312702E5F3F4F820F931F20914C0130914D01FF
S11312802817390769F4309729F410924F01109206
S11312904E0102C013821282B0934D01A0934C01FF
S11312A0DF91CF910895FB01DC0102C001900D9202
S11312B041505040D8F70895FB01DC010D90002007
S11312C0E9F7119701900D920020E1F70895FB01D1
S11312D0DC0101900D920020E1F70895BB274A300C
S11312E031F4992322F4BDE2909581959F4F01C07A
S11312F0BB27FB015527AA27880F991FAA1FA417EC
S113130010F0A41B83955051B9F7A05DAA3308F0DF
S1131310A95DA193009779F7B111B1931192CB0113
S113132000C0DC01FC01672F71917723E1F732974C
S113133004C07C916D9370836291AE17BF07C8F3AC
S10913400895F894FFCFAC
S11313460000500120002D2D2D2D2D2D2D2D2D2D60
S11313562D2D2D2D2D2D00F7F800D7C0D1DB00F94A
S1131366FAD7C3D300CDC0D1D2D0CEC9CAC83A00A9
S11313763E00312E20C1D3C4C8CBDCCDC8CA00324E
S11313862E20D3D1D220C2D0C5CCDF00332E20D319
S10B1396D1D220C4C0D2D3005F
S9030000FC
